:020000040804EE
:10000000A09901209D010408AB010408AD0104087A
:10001000AF010408B1010408B3010408B5010408E4
:10002000000000000000000000000000B70104080C
:10003000B901040800000000BB010408BD01040868
:10004000BF010408C1010408C301040865BE040817
:10005000C7010408C9010408CB010408CD01040844
:10006000CF010408D1010408D3010408D501040814
:10007000D7010408D9010408D1450408F94504084A
:10008000DF01040821460408E3010408E12604080E
:10009000C5250408E9010408EB010408ED01040882
:1000A0003DE10408FDE104089DE10408F5010408B0
:1000B000A5E20408F1E2040845E30408FD01040890
:1000C000FF010408010204080302040805020408F1
:1000D00007020408F9E904080B02040875EA040899
:1000E0000F0204088DBB040813020408A5E40408E9
:1000F00065E5040805E504081B0204083D460408FC
:100100001F020408D5C00408A5E30408250204085A
:1001100071E704082902040805E404082D02040814
:100120002F020408310204083302040835020408CF
:1001300037020408AD5804083B0204083D020408D5
:100140003F020408410204084302040801B5040800
:100150004702040859460408794604084D02040879
:100160004F0204085102040853020408550204080F
:1001700057020408590204085B0204085D020408DF
:100180005F02040861020408DFF80CD000F0F0F808
:1001900000480047EB4E0508A0990120314801684E
:1001A00041F47001016030480047FEE7FEE7FEE7DA
:1001B000FEE7FEE7FEE7FEE7FEE7FEE7FEE7FEE717
:1001C000FEE7FEE7FEE7FEE7FEE7FEE7FEE7FEE707
:1001D000FEE7FEE7FEE7FEE7FEE7FEE7FEE7FEE7F7
:1001E000FEE7FEE7FEE7FEE7FEE7FEE7FEE7FEE7E7
:1001F000FEE7FEE7FEE7FEE7FEE7FEE7FEE7FEE7D7
:10020000FEE7FEE7FEE7FEE7FEE7FEE7FEE7FEE7C6
:10021000FEE7FEE7FEE7FEE7FEE7FEE7FEE7FEE7B6
:10022000FEE7FEE7FEE7FEE7FEE7FEE7FEE7FEE7A6
:10023000FEE7FEE7FEE7FEE7FEE7FEE7FEE7FEE796
:10024000FEE7FEE7FEE7FEE7FEE7FEE7FEE7FEE786
:10025000FEE7FEE7FEE7FEE7FEE7FEE7FEE7FEE776
:10026000FEE7000088ED00E089010408202A04DB95
:10027000203A00FA02F1002070479140C2F12003B9
:1002800020FA03F3194390407047202A04DB203AF8
:1002900021FA02F00021704721FA02F3D040C2F1A6
:1002A0002002914008431946704740EA01039B072A
:1002B00003D009E008C9121F08C0042AFAD203E0DB
:1002C00011F8013B00F8013B521EF9D27047D2B23F
:1002D00001E000F8012B491EFBD270470022F6E72F
:1002E00010B513460A4604461946FFF7F0FF2046AC
:1002F00010BD30B504460020034600E05B1C93426D
:1003000003D2E05CCD5C401BF8D030BD2DE9F05F3E
:100310000546002092469B46884606468146402474
:100320001BE02846414647462246FFF7AEFF5346AC
:100330005A46C01A914110D3114618462246FFF77B
:1003400095FF2D1A67EB01084F4622460120002138
:10035000FFF78CFF17EB00094E41201EA4F10104AA
:10036000DFDC484631462A464346BDE8F09F0000A0
:10037000064C074D06E0E06840F0010394E80700F2
:1003800098471034AC42F6D3FFF702FFD46A050851
:10039000F46A050870B58C1810F8015B15F00703B6
:1003A00001D110F8013B2A1106D110F8012B03E00E
:1003B00010F8016B01F8016B5B1EF9D12B0705D416
:1003C0000023521E0DD401F8013BFAE710F8013B5F
:1003D000CB1A921C03E013F8015B01F8015B521E7B
:1003E000F9D5A142D8D3002070BD000001460829EC
:1003F00004DA044850F82100008870474FF0FF30BD
:10040000FBE70000F40200201CB501203149088000
:100410003149088000200090034603220221019008
:100420002E4805F0BBFE2E48006840F480702C4931
:1004300008600846006820F4807008604FF440307F
:1004400028490860002028494860886008464068BC
:1004500048600846406848600846806840F00200EE
:1004600088600846806820F40060886008468068DC
:1004700088600846C06A20F47000C8620846C06AF6
:10048000C8620846006920F06050086108460069AB
:1004900040F0405008610846806840F001008860E4
:1004A0000846806840F4007088600846806840F420
:1004B000807088600846406B20F01F004863084643
:1004C000406B40F0090048630846806840F0804077
:1004D00088601CBDA0084742040647420004024051
:1004E0002438024004230140002001401CB50120B3
:1004F0003E4908803E4908800020009003460322C0
:10050000012101903B4805F049FE3B48006840F45A
:100510000070394908600846006820F400700860DF
:100520000020364908603649C1F8080133480068A0
:10053000C1F8040131480068C1F804010846D0F848
:10054000080140F00200C1F808010846D0F808018F
:1005500020F40060C1F808012848001D0068C1F8B7
:1005600008010846D0F82C0120F47000C1F82C01D5
:10057000224828300068C1F82C010846D0F8100144
:1005800020F0E060C1F810010846D0F8100140F0FA
:10059000E060C1F810010846D0F8080140F0010001
:1005A000C1F808010846D0F8080140F40070C1F80D
:1005B00008010846D0F8080140F48070C1F808012D
:1005C0000846D0F8340120F01F00C1F83401084675
:1005D000D0F8340140F00800C1F834010846D0F8E2
:1005E000080140F08040C1F808011CBDA408474242
:1005F000040647420004024024380240042101401E
:10060000002001401CB50A203221124B124ACDE9CC
:1006100000100021114807F001FA0A2032210D4B89
:1006200064330F4ACDE9001001210C48303007F047
:10063000F5F93221094807F0C9FA3221074830306C
:1006400007F0C4FA022013F057F8FFF7DDFEFFF7BA
:100650004DFF1CBDB06200204C20014010640240E0
:100660004C21014013200FE00949096851F820107E
:1006700049B10146C21700EB92729210521C044B12
:100680001B681A6502E0401E0028EDDA00BF7047C3
:100690003C0700200C4A1168B1F8D428012A11D176
:1006A0000022A1F8D428002006E00022074B1B6896
:1006B00043F82020421CD0B21428F6DB0022034B62
:1006C0001B681A6570470000440700203C070020A3
:1006D00030B5012818DB052816DC032914DC1F2A95
:1006E00012DC0423C3EB80030B44084C246854F849
:1006F000233001249440A3430424C4EB80040C441D
:10070000024D2D6845F8243030BD00003C07002024
:1007100030B5012818DB052816DC032914DC1F2A54
:1007200012DC0423C3EB80030B44084C246854F808
:1007300023300124944023430424C4EB80040C445C
:10074000024D2D6845F8243030BD00003C070020E4
:1007500000B58DB042F210704FF47A71009144F2FE
:1007600054631B4ACDE90110A2F69441A1F54370F0
:1007700014F05AF806F0C8FB10B906F09DFB04E02F
:1007800006F06CFB08B103F0EFFF03F0EDFF10483B
:1007900001F018FA14F02AF80E480F4908602821D1
:1007A00003A8FFF79BFD0DA20FA103A812F0EAF822
:1007B000282203A908482830FFF777FD01210648C1
:1007C000C0F8EC130A4806F0DFFE0DB000BD0000D3
:1007D0007C1800208CD11E00DC0800204A756E2099
:1007E000203120323032300079645F257300000000
:1007F0003856002070477047704770474160704717
:10080000030A000010B53848D0F8EC03012804D1E1
:10081000002211460320FFF77BFF3348D0F8F00396
:10082000012804D1002211460420FFF771FF2E4851
:10083000D0F85C0304280CD22B48D0F85C0340B1FC
:100840002948D0F8E803022803D101212648C0F83E
:10085000B81B2548D0F85C03042806D301212248A0
:10086000C0F8F0130421C0F8B81B002439E0E0B24E
:1008700005F0BEFDB0F5805F05D0E0B205F0B8FD33
:10088000B0F5005F05D1E2B201210846FFF740FF55
:1008900004E0E2B201210846FFF71AFFE0B205F0DA
:1008A000A7FDB0F5807F05D0E0B205F0A1FDB0F561
:1008B000007F05D1E2B200210120FFF729FF04E00B
:1008C000E2B200210120FFF703FFE0B205F090FD46
:1008D000012805D1601CC2B200210420FFF718FFD7
:1008E000641C082CC3DB10BDDC08002070B5044676
:1008F0000D46012D00DD70BD2046FFF777FDA842B3
:1009000009D000201F4941F824000DF07DFB1E494D
:1009100041F82400EFE72046FFF768FDA8420CD11C
:10092000184850F8240040B90120164941F8240025
:100930000DF06AFB144941F82400124850F82400D5
:1009400001281CD12046FFF751FDA84217D10DF018
:100950005BFB0D4951F82410401AB0F5FA7F0ED315
:10096000204601F001F90121204601F0E9F80720B5
:10097000C4EBC401054A02EB011181F8640000BF19
:10098000B9E70000B46B0020746B002034640020D1
:10099000C0EBC001074A02EB0111B1F8601039B990
:1009A0000021C0EBC002034B03EB021282F864107B
:1009B0007047000034640020C0EBC001074A02EB1E
:1009C0000111B1F8601039B90021C0EBC002034B2E
:1009D00003EB021282F864107047000034640020B8
:1009E00010B5002063490870BDE062480078C0EB94
:1009F000C000614901EB0010B0F8600048B15F48E9
:100A00005C490978405C20B901215C48594A127858
:100A100081545A4857490978405C012804D002287B
:100A20006ED00328FFD198E05248007802F03CFFD6
:100A300050490978C1EBC1014F4A02EB0111C86569
:100A40004C480078C0EBC000114601EB0010C06DAF
:100A500048490978C1EBC10102EB011109698842DB
:100A60000ED344480078C0EBC000114601EB0010E3
:100A7000006940490978C1EBC10102EB0111C86569
:100A80003C480078C0EBC0003B4A02EB0010C16D4F
:100A9000384800780AF000FF364800780AF09EFED9
:100AA00034490978C1EBC101334A02EB011191F9D4
:100AB0006C10304A1278C2EBC2022F4B03EB0212C9
:100AC000526D00FB01202B490978C1EBC1011A4688
:100AD00002EB01118865274800780AF0A7FE70B97B
:100AE000002024490978C1EBC101234A02EB01111E
:100AF000A1F86000002121481E4A127881542CE0A0
:100B00001C4800780AF06AFE1A490978C1EBC10155
:100B1000194A02EB011191F96C10164A1278C2EBD6
:100B2000C202154B03EB0212526D00FB012011496A
:100B30000978C1EBC1011A4602EB0111886500205A
:100B40000C490978C1EBC10102EB0111A1F8600069
:100B50000A49084A1278885400BF00BF0548007847
:100B6000401C04490870034800781028FFF63DAF88
:100B700010BD00006007002034640020F46B0020EA
:100B80007FB504460D46C4EBC400874901EB001055
:100B9000B0F8600000287CD1C4EBC40001EB001069
:100BA000806DC4EBC401804A02EB01114865C4EBBF
:100BB000C400114601EB00104068C4EBC40102EB15
:100BC0000111C865C4EBC400114601EB0010C06DF3
:100BD000C4EBC40102EB0111096988420AD3C4EBDA
:100BE000C400114601EB00100069C4EBC40102EB24
:100BF0000111C865C4EBC4006B4A02EB0010C16D63
:100C000020460AF049FE002D64DD0121204600F057
:100C100003FFC4EBC400644901EB0010C06DC4EBDA
:100C2000C401614A02EB0111096988420AD3C4EB8D
:100C3000C400114601EB00100069C4EBC40102EBD3
:100C40000111C865C4EBC400574A02EB00104168AB
:100C500020460AF021FE294620460AF0D5FE012052
:100C6000C4EBC401504A02EB0111A1F86000C4EBCF
:100C7000C400114601EB00104069C4EBC40102EB53
:100C800001118968C4EBC402474B03EB0212126DD9
:100C900000E086E0C4EBC403434E06EB0313DB69BC
:100CA000CDE90032CDE90210C4EBC40006EB001020
:100CB0000369C4EBC40006EB00104268C4EBC40037
:100CC00006EB001090F82010204603F047FC0020AF
:100CD00004B070BD002D62DA4FF0FF31204600F005
:100CE0009BFEC4EBC400304901EB0010C06DC4EBA7
:100CF000C4012D4A02EB0111096988420AD3C4EBF1
:100D0000C400114601EB00100069C4EBC40102EB02
:100D10000111C865C4EBC400234A02EB001041680E
:100D200020460AF0B9FD694220460AF06DFE012016
:100D3000C4EBC4011C4A02EB0111A1F86000C4EB32
:100D4000C400114601EB00104069C4EBC40102EB82
:100D500001118A68C4EBC401134B03EB0111096D47
:100D6000C4EBC403104E06EB0313DB69CDE900317D
:100D7000CDE90220C4EBC40006EB00100369C4EB0C
:100D8000C40006EB00104268C4EBC40006EB001080
:100D900090F82010204603F0E1FB002098E70020A7
:100DA00096E74FF0FF3093E73464002010B5044617
:100DB000C4EBC400FE4901EB001090F86400052864
:100DC00013D1C4EBC40001EB0010B0F8620060B9AD
:100DD0000120C4EBC401F64A02EB0111A1F8620044
:100DE0000DF012F9F34941F82400C4EBC400F049B6
:100DF00001EB001090F8640005282AD1C4EBC40070
:100E000001EB0010406B20B30DF0FEF8E94951F8FA
:100E10002410401AC4EBC401E54A02EB0111496BEE
:100E2000884216D90221204600F08AFE204600F0B2
:100E30009BFE0020C4EBC401DD4A02EB0111A1F8C6
:100E400062000720C4EBC40102EB011181F86400C9
:100E500010BDC4EBC400D64901EB0010B0F862002D
:100E60001C287AD2DFE800F0790E83B0C7FDFCFBC6
:100E7000FAF9F8F7F6F5F4F3F2F1F0EFEEEDECEB4A
:100E8000EAE9E8E7C4EBC400C94901EB001090F8B7
:100E9000380000F00100C8B3C4EBC40001EB00103F
:100EA00090F83E0088B1C4EBC401C14A02EB0111C5
:100EB00091F8440000F0DCFDC4EBC401BC4A02EB35
:100EC000011191F84210884221D0C4EBC400B84906
:100ED00001EB0010406AC4EBC401B54A02EB0111FA
:100EE00008614FF010412046FFF74AFEC4EBC400F2
:100EF000AF4901EB0010B0F86200401CC4EBC40124
:100F0000AB4A02EB0111A1F862002FE0FFE7C4EB4E
:100F1000C400A74901EB001090F8380000F0080069
:100F200040B11020C4EBC401A14A02EB0111A1F8A9
:100F300062001BE0C4EBC4009D4901EB001090F877
:100F4000380000F0100048B11620C4EBC401984AE4
:100F500002EB0111A1F8620008E009E20420C4EBF1
:100F6000C401934A02EB0111A1F8620000E2C4EB54
:100F7000C4008F4901EB001090F83E0018B3C4EB99
:100F8000C4018B4A02EB011191F8440000F070FD9E
:100F9000C4EBC401864A02EB011191F84210884269
:100FA00011D1204600F0E0FDC4EBC400804901EB04
:100FB0000010B0F86200401CC4EBC4017C4A02EB94
:100FC0000111A1F86200D3E1C4EBC400784901EB40
:100FD0000010B0F8600068B9C4EBC40001EB001069
:100FE000B0F86200401CC4EBC401714A02EB01116D
:100FF000A1F86200BCE1C4EBC4006D4901EB001034
:1010000090F8380000F0020060B3C4EBC40001EBBC
:10101000001090F83D0030B3C4EBC401644A02EB09
:10102000011191F8430000F023FDC4EBC401604AB4
:1010300002EB011118E0FDE3E4E3B7E38CE36AE3BC
:101040001CE30AE3E4E2B7E287E265E217E2F8E1D3
:10105000E0E1A5E18DE160E115E1FDE0D0E075E0C2
:101060005DE02FE025E003E091F84110884220D0B8
:10107000C4EBC4004E4901EB0010406AC4EBC4014C
:101080004B4A02EB011108614FF0E0412046FFF7A7
:1010900077FDC4EBC400464901EB0010B0F86200D4
:1010A000401CC4EBC401424A02EB0111A1F86200EA
:1010B00007E00720C4EBC4013D4A02EB0111A1F88F
:1010C0006200D7E3C4EBC400394901EB001090F88B
:1010D0003D0018B3C4EBC401354A02EB011191F88D
:1010E000430000F0C5FCC4EBC401314A02EB01111E
:1010F00091F84110884211D1204600F035FDC4EB33
:10110000C4002B4901EB0010B0F86200401CC4EB96
:10111000C401274A02EB0111A1F86200AAE3C4EB63
:10112000C400234901EB0010B0F8600068B9C4EBBB
:10113000C40001EB0010B0F86200401CC4EBC40115
:101140001B4A02EB0111A1F8620093E3C4EBC40057
:10115000174901EB001090F8380000F0010030B39F
:10116000C4EBC40001EB001090F8380000F002005E
:10117000E8B9C4EBC40001EB0010406AC4EBC40141
:101180000B4A02EB011108614FF0E0412046FFF7E6
:10119000F7FCC4EBC400064901EB0010B0F8620094
:1011A000401CC4EBC401024A02EB011104E006E05A
:1011B00034640020046C0020A1F862001FE0C4EB3E
:1011C000C400FB4901EB0010406AC4EBC401F84ABB
:1011D00002EB011108614FF010412046FFF7D0FCEF
:1011E000C4EBC400F24901EB0010B0F86200401CEF
:1011F000C4EBC401EE4A02EB0111A1F8620039E32D
:10120000C4EBC400EA4901EB001090F8300010B3C1
:10121000C4EBC401E64A02EB0111488E00F028FC41
:10122000C4EBC401E24A02EB011191F8311088428B
:1012300011D1204600F098FCC4EBC400DC4901EB5E
:101240000010B0F86200401CC4EBC401D84A02EBA5
:101250000111A1F862000DE3C4EBC400D44901EB15
:101260000010B0F8600068B9C4EBC40001EB0010D6
:10127000B0F86200401CC4EBC401CD4A02EB01117E
:10128000A1F86200F6E2C4EBC400C94901EB00100A
:1012900090F8300080B3C4EBC401C54A02EB0111E1
:1012A000488E00F0E5FBC4EBC401C14A02EB01111A
:1012B00091F83110884220D1C4EBC400114601EBF3
:1012C0000010806AC4EBC40102EB011108614FF009
:1012D000E0412046FFF754FCC4EBC400B44901EBE5
:1012E0000010B0F86200401CC4EBC401B04A02EB2D
:1012F0000111A1F862000FE0FFE7C4EBC400AC49A4
:1013000001EB0010B0F86200401CC4EBC401A84A15
:1013100002EB0111A1F86200ACE2C4EBC400A449E5
:1013200001EB001090F8300080B1C4EBC401A04A7A
:1013300002EB0111488E00F09BFBC4EBC4019C4AF8
:1013400002EB011191F83110884211D0204600F0D3
:101350000BFCC4EBC400964901EB0010B0F862002E
:10136000401CC4EBC401924A02EB0111A1F86200D7
:1013700080E2C4EBC4008E4901EB0010B0F86000BD
:1013800068B9C4EBC40001EB0010B0F86200401C67
:10139000C4EBC401864A02EB0111A1F8620069E2C4
:1013A000C4EBC400824901EB0010C06A10B3C4EB67
:1013B000C40001EB00100069C4EBC4017C4A02EBDD
:1013C00001110861C4EBC40002EB0010C16A2046A1
:1013D000FFF7D6FBC4EBC400754901EB0010B0F871
:1013E0006200401CC4EBC401714A02EB0111A1F878
:1013F00062000EE0C4EBC4006D4901EB0010B0F8D0
:101400006200401CC4EBC401694A02EB0111A1F85F
:1014100062002FE2C4EBC400654901EB0010B0F894
:10142000600068B9C4EBC40001EB0010B0F86200C2
:10143000401CC4EBC4015E4A02EB0111A1F862003A
:1014400018E20020C4EBC401594A02EB011188657F
:10145000C4EBC40102EB01110865C4EBC40102EB4B
:10146000011181F86400204600F03CFB0020C4EB31
:10147000C4014F4A02EB0111A1F86200FAE1C4EB8A
:10148000C4004B4901EB001090F8300080B1C4EB70
:10149000C401474A02EB0111488E00F0E9FAC4EB9F
:1014A000C401434A02EB011191F83110884219D06E
:1014B000C4EBC4003E4901EB0010406AC4EBC40118
:1014C0003B4A02EB011108614FF0E0412046FFF773
:1014D00057FB1120C4EBC401354A02EB0111A1F8FE
:1014E000620018E0C4EBC400314901EB0010406A0F
:1014F000C4EBC4012E4A02EB011108614FF0E04138
:101500002046FFF73DFB1220C4EBC401284A02EB42
:101510000111A1F86200ADE1C4EBC400244901EB64
:10152000001090F83000B8B1C4EBC401204A02EBBF
:101530000111488E00F09CFAC4EBC4011C4A02EB76
:10154000011191F83110884206D11220C4EBC40178
:1015500002EB0111A1F862008CE1C4EBC400144954
:1015600001EB001090F8300080B1C4EBC401104AC8
:1015700002EB0111488E00F07BFAC4EBC4010C4A67
:1015800002EB011191F8311088420FD0204600F093
:10159000EBFA0CF039FD074941F824001320C4EBA5
:1015A000C401034A02EB0111A1F8620062E10000EC
:1015B00034640020446C0020C4EBC400AF4901EB4C
:1015C0000010B0F8600010BB0CF01EFDAC4951F8E3
:1015D0002410401A40F63401884218D3C4EBC400EA
:1015E000A64901EB0010806AC4EBC401A34A02EBD8
:1015F000011108614FF010412046FFF7C1FA142095
:10160000C4EBC4019D4A02EB0111A1F8620031E173
:10161000C4EBC400994901EB001090F83000D8B138
:10162000C4EBC401954A02EB0111488E00F020FA88
:10163000C4EBC401914A02EB011191F831108842C8
:101640000AD1204600F090FA1520C4EBC4018B4A61
:1016500002EB0111A1F862000CE1C4EBC400874960
:1016600001EB0010B0F8600038B90F20C4EBC401E2
:10167000824A02EB0111A1F86200FBE0C4EBC40056
:101680007E4901EB001090F8300080B1C4EBC4013A
:101690007A4A02EB0111488E00F0EAF9C4EBC4016A
:1016A000764A02EB011191F83110884219D0C4EB4F
:1016B000C400724901EB0010406AC4EBC4016F4AD8
:1016C00002EB011108614FF010412046FFF758FA74
:1016D0001720C4EBC401694A02EB0111A1F86200B2
:1016E00018E0C4EBC400654901EB0010406AC4EB8C
:1016F000C401624A02EB011108614FF0104120461B
:10170000FFF73EFA1820C4EBC4015C4A02EB01115A
:10171000A1F86200AEE0C4EBC400584901EB001030
:1017200090F83000B8B1C4EBC401544A02EB011187
:10173000488E00F09DF9C4EBC401504A02EB011140
:1017400091F83110884206D11820C4EBC40102EB95
:101750000111A1F862008DE0C4EBC400474901EB20
:10176000001090F8300080B1C4EBC401434A02EB92
:101770000111488E00F07CF9C4EBC4013F4A02EB32
:10178000011191F8311088420FD0204600F0ECF999
:101790000CF03AFC3A4941F824001920C4EBC4018A
:1017A000364A02EB0111A1F8620063E0C4EBC40009
:1017B000324901EB0010B0F8600010BB0CF024FCC3
:1017C0002F4951F82410401A40F63401884218D3AA
:1017D000C4EBC400294901EB0010806AC4EBC401CA
:1017E000264A02EB011108614FF0E0412046FFF765
:1017F000C7F91A20C4EBC401204A02EB0111A1F879
:10180000620037E0C4EBC4001C4901EB001090F803
:101810003000E8B1C4EBC401184A02EB0111488E54
:1018200000F026F9C4EBC401144A02EB011191F84F
:10183000311000E00DE088420AD1204600F094F912
:101840001B20C4EBC4010D4A02EB0111A1F8620098
:1018500010E0C4EBC400094901EB0010B0F86000CF
:1018600038B90F20C4EBC401044A02EB0111A1F8FE
:10187000620000BF00BF00BFFFF7EABA3464002077
:10188000446C002010B50446C4EBC400314901EBA0
:10189000001090F86C00012828D1C4EBC40001EBC3
:1018A000001090F83D0008B3C4EBC401294A02EBD4
:1018B000011191F8430000F0DBF8C4EBC401254AA4
:1018C00002EB011191F8411088420FD14FF4807161
:1018D000204600F035F9204600F046F90720C4EB19
:1018E000C4011C4A02EB011181F86400C4EBC4007E
:1018F000184901EB001090F96C00B0F1FF3F28D1BE
:10190000C4EBC40001EB001090F83E0008B3C4EB38
:10191000C401104A02EB011191F8440000F0A8F84C
:10192000C4EBC4010B4A02EB011191F8421088424A
:101930000FD14FF48051204600F002F9204600F00C
:1019400013F90720C4EBC401024A02EB011181F82C
:10195000640010BD3464002010B50446C4EBC4001C
:101960002C4901EB001090F83F0020B3C4EBC400F9
:1019700001EB001090F86C0001281CD1C4EBC400EE
:1019800001EB0010806DC4EBC401224A02EB01118F
:10199000896C88420FDD4FF40071204600F0D0F8CA
:1019A000204600F0E1F80720C4EBC401194A02EB1D
:1019B000011181F86400C4EBC400164901EB00106A
:1019C00090F8400028B3C4EBC40001EB001090F97C
:1019D0006C00B0F1FF3F1CD1C4EBC40001EB001060
:1019E000806DC4EBC4010B4A02EB0111C96C884243
:1019F0000FDA4FF40051204600F0A2F8204600F024
:101A0000B3F80720C4EBC401024A02EB011181F8CC
:101A1000640010BD3464002070B504460D46C4EB6C
:101A2000C400114901EB001080F86C50002D0DDD51
:101A30000E4850F8240020B90121204602F06AFF28
:101A400011E00021204602F065FF0CE0074850F845
:101A5000240020B90021204602F05CFF03E00121B0
:101A6000204602F057FF70BD34640020346B002024
:101A700010B50446802C04D2E0B205F077FDC0B268
:101A800010BD802C08D3902C06D2A4F18001C8B2DE
:101A9000FEF7ACFCC0B2F3E7902C08D3A02C06D222
:101AA000A4F19001C8B205F0D9FEC0B2E8E7C02C9D
:101AB00009D3D02C07D2A4F1C001C8B2002104F090
:101AC0008DF8C0B2DCE7D02C09D3E02C07D2A4F10A
:101AD000D001C8B2012104F081F8C0B2D0E70020E3
:101AE000CEE70000C0EBC001104A02EB011109680B
:101AF000C0EBC0020D4B03EB02125160C0EBC00102
:101B00001A4602EB0111C968C0EBC00203EB0212D6
:101B10001161C0EBC0011A4602EB01118969C0EBEB
:101B2000C00203EB0212D161704700003464002050
:101B30000146142901D2142070470846FCE7000032
:101B400010B510280CDAC0EBC002064B03EB0212F2
:101B5000926E0A43C0EBC003024C04EB03139A6677
:101B600010BD00003464002010B50446204609F082
:101B700085FF10BDC0EBC001074A02EB0111B1F8AF
:101B8000601039B90021C0EBC002034B03EB021215
:101B900082F864107047000034640020C0EBC0017C
:101BA000074A02EB0111B1F8601039B90021C0EB0E
:101BB000C002034B03EB021282F86410704700006E
:101BC00034640020F0B587B00546002428E104EB1A
:101BD000041005EB8000008D30B1012833D00228BD
:101BE00066D003282ED1B0E000200290039004902C
:101BF0000590009004EB041105EB810101900B7E30
:101C000004EB041105EB81010A7DE0B2012104F02F
:101C100093FD04EB041005EB800090ED0D0ABDEE82
:101C2000C00A8DED000A04EB041105EB810191ED72
:101C30000E0ABDEEC00A10EE102AE0B200231946CB
:101C400004F0CEFFCEE000200290039004900590B7
:101C5000009004EB041105EB810101900B7E04EB75
:101C6000041105EB81010A7DE0B2012104F064FD5D
:101C700004EB041005EB8000D0ED0D0AB0EE600A15
:101C8000204601F0BDFD064604EB041005EB800084
:101C9000D0ED0E0AB0EE600A204601F0B1FD074615
:101CA000E0B201233A461946009604F099FF99E004
:101CB00004EB041005EB800090F8321004EB0410E4
:101CC00005EB800090F83000012304EB041205EBD3
:101CD000820292F82E20CDE90223CDE9040104EB23
:101CE000041005EB800090F82C0004EB041105EBC8
:101CF0008101CDE900300B7E04EB041105EB81017D
:101D00000A7DE0B2012104F017FD04EB041005EB9D
:101D10008000D0ED0D0AB0EE600A204601F070FDA3
:101D2000064604EB041005EB8000D0ED0E0AB0EE81
:101D3000600A204601F064FD0746E0B200233A46FF
:101D40001946009604F04CFF4CE004EB041005EB40
:101D5000800090F8320004EB041105EB810191F84A
:101D60003010012304EB041205EB820292F82E20BE
:101D7000CDE90223CDE9041004EB041005EB80004B
:101D800090F82C0004EB041105EB8101CDE9003043
:101D90000B7E04EB041105EB81010A7DE0B2012109
:101DA00004F0CAFC04EB041005EB8000D0ED0D0A32
:101DB000B0EE600A204601F023FD064604EB041055
:101DC00005EB8000D0ED0E0AB0EE600A204601F06F
:101DD00017FD0746E0B201233A461946009604F083
:101DE000FFFE00BF00BF04EB041205EB820292F875
:101DF0002A10E0B204F08EFC04EB041005EB800026
:101E0000416A006ACDE9000104EB041105EB810190
:101E100001F11406E0B214310EC900F055F8641C4B
:101E2000082CFFF6D4AE07B0F0BD00002DE9F0415C
:101E3000C4B004460E461546984600274FF48872F3
:101E400020496846FEF731FA8DF803408DF81340BB
:101E50008DF823408DF833408DF843408DF8534082
:101E60008DF863408DF873408DF883408DF8934072
:101E70008DF8A3408DF8B3408DF8C3408DF8D34062
:101E80008DF8E3408DF8F3408DF803414FF48872EC
:101E900069462846FEF709FA00BF0EE0A879032834
:101EA00002D0A879042801D1012068702846103595
:101EB0008680701C86B2781CC7B2112FEED344B056
:101EC000BDE8F081FC6605080FB4FEB50446082C99
:101ED00002DDFEBC5DF814FBDDED0D0AB0EE600A1C
:101EE000204601F08DFC0546DDED0C0AB0EE600ADF
:101EF000204601F085FC0646DDED0B0AB0EE600AD7
:101F0000204601F07DFC0746CDE901650090BDF853
:101F10002A00C3B2BDF82800C2B20998C1B2204657
:101F200004F0ACFD00BFD4E70FB42DE9FE438146B9
:101F3000B9F1080F03DDBDE8FE035DF814FBDDED2C
:101F40000B0AB0EE600A484601F05AFC05469DEDCA
:101F50000C0ABCEEC00A10EE107ADDED0D0AB0EEF0
:101F6000600A484601F04CFC06469DED0E0ABCEEA8
:101F7000C00A10EE108ADDED0F0AB0EE600A484686
:101F800001F03EFC044640F6B830854201D94FF4DA
:101F90007A75C82F00D95027B8F1C80F01D94FF072
:101FA000500840F6B830844201D94FF47A740B4897
:101FB000864200D94610AE4200D86E1CA64200D818
:101FC000661C002033463A462946CDE9008402903B
:101FD000484604F01DFC00BFADE70000400D0300C3
:101FE00010B5002412E0E0B204F012FA154941F8ED
:101FF0002400084650F82410204601F02FFC114818
:10200000C83800EB840080ED000A641C082CEADB71
:10201000002407E0E0B203F04FFD0A49C83141F85F
:102020002400641C042CF5DB002407E0E0B204F07B
:10203000FFF981B2044820F81410641C082CF5DB69
:1020400010BD00006C0A0020400900202DE9F04F6F
:102050009DB004460426002704EB8401CD480068A7
:102060000C3000EB810090F8018004EB8401C9483A
:1020700000680C3000EB810090F8029004EB8401C2
:10208000C44800680C3000EB810090F803A004EB1A
:102090008401C04800680C3000EB810090F804B067
:1020A00004EB8401BB4800680C3000EB81004079F0
:1020B0001C9004EB8401B74800680C3000EB8100F1
:1020C0008568B54A92E80B00D268CDE91A32CDE9AD
:1020D000180108EB4801C81DC11700EB5171C1F38D
:1020E000C7018DF860108DF86340AB4B10330FCBF8
:1020F000CDE91623CDE9140109F10700C11700EB62
:102100005171C9108DF850108DF85340A24B2033F7
:102110000FCBCDE91223CDE910018DF843409E4B42
:1021200030330FCBCDE90E23CDE90C010AF10700C6
:10213000C11700EB5171C9108DF830108DF8334084
:10214000954B40330FCBCDE90A23CDE9080108F1C7
:102150000700C11700EB5171C9108DF820108DF8E0
:1021600023408D4B50330FCBCDE90623CDE904013D
:102170008DF81340884B6033D3E901021968DB689E
:10218000CDE90223CDE900108DF8034040350A2C3B
:102190007DDA00BF35E03B462A4631462046FFF750
:1021A00045FE7C4800688078C1197A480068D430C0
:1021B00000EB41100560774800688078C1197548C8
:1021C0000068D43000EB4110477700217148006867
:1021D0008078C2196F480068D43000EB4210017754
:1021E0006C4800688078C1196A480068D43000EBF8
:1021F0004110846006F1110086B205F58875781CDF
:10220000C7B24745C7DBB8F1000F1FD0102218A98D
:102210002846FEF74AF8002711E05E4800688178FA
:102220005C480068D43000EB4110456059480068B4
:102230008078401C574909688870781CC7B24745A8
:10224000EBDB284610358680701C86B2B9F1000F92
:1022500010D0102214A92846FEF727F84D48006830
:1022600000F2D45000EB041005602846103586803B
:10227000701C86B2B8F1000F12D0102210A92846A7
:10228000FEF713F84348006800F2D45000E07DE008
:1022900000EB04104560284610358680701C86B21D
:1022A000BAF1000F12D010220CA92846FDF7FDFF4D
:1022B0003848006800F2D45000EB0410856001201B
:1022C0006870284610358680701C86B2B8F1000F01
:1022D00012D0102208A92846FDF7E7FF2D48006814
:1022E00000F2D45000EB0410C5600120687028464D
:1022F00010358680701C86B2BBF1000F20D00027FD
:102300001CE0102204A92846FDF7CFFF04EB84014E
:10231000204800680C3000EB8100C06838B904EB3D
:1023200084011C4800680C3000EB8100C560284621
:1023300010358680701C86B2781CC7B25F45E0DB22
:102340001C9818B300271EE0102269462846FDF7A6
:10235000ACFF04EB84010F4800680C3000EB8100F7
:10236000006938B904EB84010A4800680C3000EBBE
:102370008100056101206870284610358680701C38
:1023800086B2781CC7B21C988742DDDB1DB0BDE861
:10239000F08F0000040700200C6805082DE9FC47B9
:1023A00004460D4616461F46DDF828904FF00008FB
:1023B00014B10DB106B117B90120BDE8FC87601E4C
:1023C000C4B2681EC5B2701EC6B2781E87B20120A4
:1023D0006D4908800880022100230A46CDE90010DB
:1023E0006A4803F0DBFE0120022100230A46CDE902
:1023F00000100146654803F0D1FE0922012163481F
:1024000003F0ACFE09220021604803F0A7FE012082
:102410005F49088000205F4908600846006840F076
:102420000100086008E008F101001FFA80F8B8F127
:10243000640F01DD0220C0E75648001D006800F06F
:1024400001000028EFD05348006852490860084650
:10245000006840F0400008600846006808600846D0
:10246000006840F0100008600846006808600846F0
:1024700000680860002047491C3108600846006871
:1024800040EA897008600846006840EA0460086015
:102490000846006840EA055008600846006840EABF
:1024A00006400860084600683843086039480068FC
:1024B00020F001003749086009E008F101001FFA27
:1024C00080F84FF6F070804501DD032075E7314854
:1024D000001D006800F001000028EED12E480068C1
:1024E00040F001002C4908602B481C30006820F0A7
:1024F000010029491C31086027480C30006840F071
:10250000010025490C3108602348001D006822495C
:10251000091D08602048143000681F491431086004
:1025200000201D494031086000211B4844300160F3
:1025300019481C30006840F0010017491C31086040
:1025400015480068002014490860124814300068DB
:1025500040F001000F4914310860022313220021CA
:10256000012005F043FB0B481430006840F00200E6
:10257000084914310860022314220021012005F0CB
:1025800035FB002019E700000C064742000C024012
:10259000640847420064004000660040014621B9DB
:1025A0000748006800F003007047012905D104487E
:1025B000001D006800F00300F6E70020F4E70000CB
:1025C0000C64004000B500F007F801200149487490
:1025D00000BD0000786300200FB50020FFF7DEFF8C
:1025E00010B9002004B000BD0648411E02AB03AA8A
:1025F000CDE90010411F002000F006F8014819380D
:10260000007EEFE791630020F0B5DDE90554324E1E
:1026100006EB0016366806F004061670167836B912
:102620002D4E06EB00163668760D0E6005E02A4E3C
:1026300006EB00163668F6080E60274E06EB00160D
:10264000366806F002061E70234E06EB001676680A
:1026500006F00F062E70204E06EB0016B6682670A8
:102660001D4E06EB0016B668360A66701A4E06EB6B
:102670000016B668360CA670174E06EB0016B66844
:10268000360EE670144E06EB0016F6682671124EF2
:1026900006EB0016F668360A66710F4E06EB00165A
:1026A000F668360CA6710C4E06EB0016F668360E70
:1026B000E67130B9094E366846F02006074F3E6095
:1026C00009E0012807D1054E361D366846F0200680
:1026D000024F3F1D3E60F0BDB06500400C640040FD
:1026E0001248006800F0010028B11048006840F06E
:1026F00001000E4908600D48006800F4807028B1A0
:102700000A48006840F4807008490860074800687B
:1027100000F4803028B10548006840F48030034957
:10272000086000200249086070470000086400400B
:1027300078630020F0B505460E46059C37480068D2
:1027400000F0806008B1002101E0FF20F0BD00270B
:10275000334800EB011007601EB9C5F30A056D058B
:1027600002E025F06045ED002D4800EB0110006807
:1027700028432B4F07EB01173860294800EB011065
:10278000006840EA8607264800EB011007602448ED
:1027900000EB0110006840EA4207214800EB0110FD
:1027A000076003F00F031E4800EB0110406820F0A3
:1027B0000F071B4800EB01104760194800EB0110A0
:1027C00040681843164F07EB01177860E079000660
:1027D000A77940EA0740677940EA0720277938431C
:1027E0000F4F07EB0117F860E0780006A77840EA82
:1027F0000740677840EA072027783843084F07EBFF
:102800000117B860064800EB0110006840F00107AE
:10281000034800EB01100760084697E70864004092
:10282000806500402DE9F04704460D469146C4F30B
:102830000466C4F30A2704F0FF0868B2164908705A
:102840000846007830B115480068007891F900100A
:1028500088421ED11248007886421AD11148008859
:10286000874216D110480078804512D10B48006885
:10287000C07948B9084890F900200C490748006819
:102880000830FDF712FD02E00020BDE8F0870020CF
:10289000FBE74FF0FF30F8E7F8060020E4060020E1
:1028A000DC060020DE060020E1060020E80600200D
:1028B00010B523480068C07918B900202149087074
:1028C0000EE01F480068007840B21E4908700846B4
:1028D00090F900201A48016808311B48FDF7E5FC13
:1028E00017480068C0781949087015480068808842
:1028F0001749088017480078164908701048006882
:10290000C0791549087011480078C006C0080978D8
:1029100001F0010140EAC1500D490988C1F30A01E3
:1029200040EA01200B49097808430C490860054832
:102930000178054A0948006800F0E0FD10BD00007C
:10294000E4060020F9060020F0060020DC06002046
:10295000DE060020E1060020E0060020000700203F
:1029600010B55048006828B14E48406810B90120A1
:102970004C4948604B484068012802D002287DD16C
:102980000EE000F093FD50B9FFF792FF0BF03CFB17
:102990004549086043484068401C424948607FE020
:1029A0004249434800F066FD42490870084690F9E4
:1029B0000000002840DB084601783C4A3C4800689B
:1029C000FFF730FF78B93C480068807830B13A486A
:1029D00000688078401E38490968887000203149B5
:1029E0000860486028E0344800688078401C32491C
:1029F00009688870304800688079032804D02E4820
:102A000000688079042802D10120264948602A48BC
:102A10000068807805280FDB0020224908604860A4
:102A200026480068806824490968CA7801219140D5
:102A300008432249096888600BF0E6FA1A490968D8
:102A4000401A0F282AD91C4800688078401C1A496F
:102A500009688870184800688079032804D01648EF
:102A600000688079042802D100200E49486012488D
:102A700000688078052811DB002000E00FE009499C
:102A8000086048600D48006880680B490968CA788A
:102A900001219140084309490968886000E000BFAE
:102AA00000BF10BD0C0700201C070020E806002016
:102AB000FC060020F8060020E406002004070020A1
:102AC00070B586B00446002508E00021FE4800EB02
:102AD000C410643040F82510681CC5B2072DF4DB23
:102AE000204608F08FFEF84901EBC4118865F648CE
:102AF00000EBC410007800287ED1F34800EBC4102E
:102B0000C069002877D0F04800EBC410006A0028A4
:102B100071D0ED4800EBC410C068EB4901EBC41163
:102B20008968401A00EE100AB8EE400ADFEDE70AA5
:102B300060EE200AE44800EBC41090ED070AB8EEFE
:102B4000400A80EE801ABCEEC10ADF4800EBC410D8
:102B500080ED050ADC4800EBC4104369DA4800EB5D
:102B6000C410C268D84800EBC410816802A802F003
:102B7000E5F8DDE90201CDE90401D34800EBC4101A
:102B800005998166D04800EBC410C168CE4800EBBF
:102B9000C4100069081A00EE100AB8EE400ADFED12
:102BA000CB0A60EE200AC84800EBC41090ED080A7A
:102BB000B8EE400A80EE801ABCEEC10AC24800EBB3
:102BC000C41080ED060AC04800EBC4108369BE48FB
:102BD00000EBC4100269BC4800EBC410C16802A835
:102BE00002F03EFCDDE90201CDE90401B64800EB4C
:102BF000C4100599816700E0A2E0B34800EBC4105F
:102C0000816EB14800EBC410806F0144AE4800EB08
:102C1000C410806D814212D8AB4800EBC410816DA6
:102C2000A94800EBC410806E091AA74800EBC41035
:102C3000806F091AA44800EBC410016764E2A2483F
:102C400000EBC41090ED160AB8EE400ADFEDA00AC2
:102C500060EE200A9C4800EBC41090ED070AB8EE25
:102C6000400A60EE800A984800EBC410C16996489B
:102C700000EBC410006A084400EE100AB8EE400AE7
:102C800080EE801ABCEEC10A10EE106A8E4800EB8E
:102C9000C41042698C4800EBC4103346816802A816
:102CA00008F00AFFDDE90201CDE90401864800EBE6
:102CB000C4100499C160844800EBC4100599816672
:102CC000814800EBC41083697F4800EBC41002699F
:102CD0007D4800EBC410C16802A802F0C1FBDDE929
:102CE0000201CDE90401784800EBC4100599816721
:102CF000754800EBC410816E734800EBC410806F00
:102D00000144714800EBC410806D814212D86E48B6
:102D100000EBC410816D6C4800EBC410806E091A82
:102D2000694800EBC410806F091A674800EBC410B3
:102D300001679BE30021644800EBC410016795E341
:102D4000614800EBC41000780128F2D15E4800EB26
:102D5000C410C0690028ECD05B4800EBC410006AC6
:102D60000028E6D0584800EBC41090ED070AB8EEF2
:102D7000400ADFED580A20EE200ADFED540A80EE0B
:102D8000201A514800EBC41080ED091A4E4800EBA0
:102D9000C410C0684C4901EBC4118968401A00EEA8
:102DA000100AB8EE400ADFED490A60EE200A4648F4
:102DB00000EBC41090ED070AB8EE400A9FED461AEA
:102DC00020EE010A80EE801ABDEEC10A3E4800EBFB
:102DD000C41080ED050A3C4800EBC41090ED050AD4
:102DE000B8EE400A384800EBC410D0ED090A9FED58
:102DF000371A20EE811AC0EE010AB6EE000A30EE54
:102E0000800ABDEEC00A304800EBC41080ED0B0A0A
:102E10002D4800EBC41090ED080AB8EE400ADFED33
:102E20002D0A20EE200ADFED290A80EE201A26481E
:102E300000EBC41080ED0A1A234800EBC410C168EF
:102E4000214800EBC4100069081A00EE100AB8EE21
:102E5000400ADFED1E0A60EE200A1B4800EBC4109A
:102E600090ED080AB8EE400A9FED1B1A20EE010A09
:102E700080EE801ABDEEC10A134800EBC41080ED4D
:102E8000060A114800EBC41090ED060AB8EE400A9D
:102E90000D4800EBC410D0ED0A0A9FED0C1A20EE8D
:102EA000811AC0EE010AB6EE000A30EE800ABDEECD
:102EB000C00A054800EBC41080ED0C0A024800EB84
:102EC000C410C36A004809E0846C002000007A4402
:102ED0006666663FCDCCCC3E9A99193F00EBC41094
:102EE0004269FE4800EBC410816802A801F0A2FE0E
:102EF000DDE90201CDE90401F84800EBC4100499B2
:102F0000C163F64800EBC41005994166F34800EB35
:102F1000C410C068F14901EBC41189680144EF484D
:102F200000EBC410C06B091AEC4800EBC41001643C
:102F3000EA4800EBC4104369E84800EBC410026C97
:102F4000E64800EBC410C16B02A802F013F8DDE9FB
:102F50000201CDE90401E14800EBC41004990164C9
:102F6000DE4800EBC41005998166DC4800EBC41014
:102F7000C06A0090D94800EBC4104369D74800EB01
:102F8000C410C268D54800EBC410016C02A801F05F
:102F9000A5FDDDE90201CDE90401D04800EBC41034
:102FA0000599C166CD4800EBC410036BCB4800EB1C
:102FB000C4108269C94800EBC410C16802A802F0BD
:102FC000A5F9DDE90201CDE90401C44800EBC41014
:102FD00004994164C14800EBC41005994167BF489A
:102FE00000EBC410C168BD4800EBC4100069014487
:102FF000BA4800EBC410406C091AB84800EBC41082
:103000008164B64800EBC4108369B44800EBC41077
:10301000826CB24800EBC410416C02A802F082FB43
:10302000DDE90201CDE90401AC4800EBC4100499CC
:103030008164AA4800EBC41005998167A74800EB9A
:10304000C410006B0090A54800EBC4108369A3482E
:1030500000EBC4100269A14800EBC410816C02A807
:1030600002F096F8DDE90201CDE904019B4800EB8E
:10307000C4100599C167994800EBC410416E974888
:1030800000EBC410806E0144944800EBC410C06E85
:103090000144924800EBC410406F01448F4800EB9C
:1030A000C410806F01448D4800EBC410C06F014410
:1030B0008A4800EBC410806D814226D2874800EB1D
:1030C000C410416E854800EBC410806E01448348F3
:1030D00000EBC410C06E0144804800EBC410406F88
:1030E00001447E4800EBC410806F01447B4800EB34
:1030F000C410C06F0144794800EBC410806D411AC0
:10310000764800EBC4100167B0E10021734800EB82
:10311000C4108166714800EBC41081676F4800EBF2
:10312000C410806D6D4901EBC411C96948436B49F6
:1031300001EBC411CA69694901EBC411096A114460
:10314000B0FBF1F005909DED050AB8EE400A5FED89
:10315000A10A60EE200A614800EBC41090ED070A56
:10316000B8EE401A80EE810AF6EE000A30EE200A30
:10317000BDEEC00A10EE100A584901EBC41189686F
:10318000884208D2554800EBC4108168534800EBD0
:10319000C410C16024E09DED050AB8EE400ADFEDE1
:1031A000500A60EE200A4D4800EBC41090ED070A6B
:1031B000B8EE400A80EE801A484800EBC41090ED4B
:1031C000020AB8EE400A31EE400AF6EE000A30EE8E
:1031D000200ABDEEC00A414800EBC41080ED030A8E
:1031E0003E4800EBC410C0683C4901EBC41189683B
:1031F000884212D1002508E00021384800EBC410B5
:10320000643040F82510681CC5B2072DF4DB00219E
:10321000324800EBC410016728E1304800EBC410CD
:10322000C0682E4901EBC4118968401A00EE100AEB
:10323000B8EE400ADFED2B0A60EE200A274800EBCB
:10324000C41090ED070AB8EE400A80EE801ABCEE7A
:10325000C10A224800EBC41080ED0B0A1F4800EBA6
:10326000C410C06A1D4901EBC411C9694843410833
:103270001A4800EBC4104161184800EBC41090EDEF
:10328000070AF8EE400A154800EBC41090ED080A52
:10329000B8EE400A80EE801A104800EBC41090EDA2
:1032A0000B0AB8EE400A61EE000A0C4800EBC410AD
:1032B00090ED070AB8EE401A084800EBC41090EDF4
:1032C000080AB8EE400AC1EE001A20EEA10ABCEED0
:1032D000C00A024800EBC41006E00000846C002025
:1032E0000000FA440000C84380ED0C0A604800EB7F
:1032F000C410006B5E4901EBC411096A48434108E0
:103300005B4800EBC41081610021594800EBC410F8
:103310008166574800EBC4108167554800EBC41024
:10332000C36A534800EBC4104269514800EBC41013
:10333000816802A801F07EFCDDE90201CDE904010B
:103340004B4800EBC4100499C163494800EBC4101A
:1033500005994166464800EBC410C06A0090444895
:1033600000EBC4104369424800EBC410C2684048F7
:1033700000EBC410C16B02A801F0B0FBDDE9020153
:10338000CDE904013A4800EBC4100599C1663848FC
:1033900000EBC410036B364800EBC410826934485C
:1033A00000EBC410C16802A801F0B0FFDDE9020122
:1033B000CDE904012E4800EBC410049941642C4867
:1033C00000EBC41005994167294800EBC410006B5D
:1033D0000090274800EBC4108369254800EBC41017
:1033E0000269234800EBC410416C02A801F0D0FE32
:1033F000DDE90201CDE904011D4800EBC410059987
:10340000C1671B4800EBC410416E194800EBC410A3
:10341000C06E0144164800EBC410406F01441448CC
:1034200000EBC410C06F0144114800EBC410806D64
:1034300081421BD20E4800EBC410416E0C4800EBD9
:10344000C410C06E01440A4800EBC410406F014430
:10345000074800EBC410C06F0144054800EBC410DE
:10346000806D411A024800EBC410016706B070BDC0
:10347000846C002070B504460D460B48407C78B142
:103480000020094948740846406920600846027EC9
:1034900019312846FCF709FF0348007E40B270BD91
:1034A0004FF0FF30FBE70000786300200148007810
:1034B000704700007863002038B50446FA2C08D124
:1034C00000200C230A22072100900120FEF766FF4E
:1034D00013E0B4F57A7F08D1002003230A220721E4
:1034E00000900120FEF75AFF07E0002006230A2281
:1034F000072100900120FEF751FF38BDF8B50546C1
:103500000C4616461748006848BB0120154908605C
:1035100008464560224631460930FCF7C6FE114890
:1035200004720068C8B10F484068B0F5006F0AD255
:103530000C4809300B4900900B7A0022486811466C
:10354000FFF7F8F809E007480930064900900B7AC0
:10355000002248680121FFF7EDF80020F8BD4FF088
:10356000FF30FBE77863002070B50546002407E0D4
:10357000E0B202F05DFF002801DD012070BD641C97
:10358000AC42F5D30020F9E710B52DED028B0446CF
:10359000B0EE408AB0EE000A68EE000A00EE104A73
:1035A000B8EE400A80EE201AF0EE418AB0EE680ACA
:1035B0000FF010FAF0EE000A20EE200ABDEC028BAC
:1035C00010BD000000224FF4803105E00A48006879
:1035D00000F0800000B103E0081EA1F10101F5D167
:1035E00000BF09B90320704740F2FF50024B1B1D7A
:1035F00018601046F7E70000342C0140024605E051
:103600001548016801F0450000B100E0F8E700BF8F
:1036100001F0040028B104200F4B1B1D186003208B
:10362000704701F0010020B101200B4B1B1D1860F9
:10363000F6E7094824380068904201D01020EFE7EF
:1036400040F2FF50044B1B1D1860034820380068EF
:1036500008231840C0B2E3E7342C014010B5002025
:103660004FF4803205E0164B196801F0450303B1B1
:1036700003E0131EA2F10102F5D100BF12B101F067
:1036800004034BB103200E4B1B1D1B6843F00403C6
:103690000B4C241D236010BD01F0010343B1012038
:1036A000074B1B1D1B6843F00103054C241D2360C1
:1036B00040F2FF53024C241D236000BFEBE70000E3
:1036C000342C014005E00E48016801F0450000B1CE
:1036D00000E0F8E700BF01F0040048B10848001D11
:1036E000006840F00400064A121D10600320704775
:1036F00040F2FF50024A121D10600020F7E7000060
:10370000342C014070B503460C46002505E02448E2
:10371000026802F0450000B100E0F8E700BF02F0E7
:10372000040048B11E48001D006840F004001C4E13
:10373000361D3060032070BD02F0010048B118480A
:10374000001D006840F00100154E361D306001205C
:10375000F1E7134824380068984201D01020EAE7C6
:1037600040F2FF500E4E361D30600D482038016883
:1037700001F4604018B9080C20802846DBE701F40A
:10378000005008B11320D6E701F4804008B11020A2
:10379000D1E701F4004008B10F20CCE72846CAE782
:1037A000342C014010B500204FF4803205E0134B5B
:1037B000196801F0450303B103E0131EA2F10102F1
:1037C000F5D100BF12B101F004034BB103200B4B44
:1037D0001B1D1B6843F00403084C241D236010BD0F
:1037E00001F0400343B10020044B1B1D1B6843F054
:1037F0004003024C241D236000BFF0E7342C01403D
:10380000014601EB0112134800EB8200D0ED100AD3
:103810009FED111AF4EEC10AF1EE10FA18DD01EB7A
:1038200001120C4800EB8200D0ED0F0AF8EE600A9E
:1038300060EE800A01EB0112064800EB820090ED79
:10384000101AC0EE811AFCEEE10A10EE900A7047E1
:103850000120FCE77C1800206F12833A00EB001374
:10386000104A02EB8302D26BC2B100EB00130D4A87
:1038700002EB8302D2ED100A00EE101AB8EEC00A75
:1038800060EE800A00EB0013064A02EB830292ED21
:103890000F0AB8EE401A80EE810A7047B7EE000AB0
:1038A000FBE700007C18002010B50446204607F016
:1038B00095FFFD4901EBC4114865FB4800EBC410BE
:1038C000416DF94800EBC410806D814204D10020A5
:1038D000F54901EBC4114870F34800EBC4100078BF
:1038E00000287DD1F04800EBC4104078022804D0B5
:1038F000042876D0062875D1F1E0EB4800EBC4101F
:10390000416DE94800EBC410006F0144E64800EB4C
:10391000C410806F0144E44800EBC410806D814204
:1039200065D8E14800EBC410416DDF4800EBC410DE
:10393000C06D81426DD3DC4800EBC41090ED050AE8
:10394000B8EE400AF6EE000A20EE200A9FEDD71AE4
:10395000C0EE010AB6EE000A30EE800ABDEEC00AE3
:1039600010EE100AD04901EBC411C96C0844CE49CD
:1039700001EBC411C864CC4800EBC410C16CCA4848
:1039800000EBC410C068814204D2C74800EBC410E9
:10399000C06C03E0C44800EBC410C068C24901EB2E
:1039A000C411C864C04800EBC41090ED130AB8EE0F
:1039B000400AF6EE000A60EE200A9FEDBC1A80EE87
:1039C000810AF6EE000A30EE200ABDEEC00A10EEC3
:1039D000100AB54901EBC411C96D0144B24802E0B7
:1039E000E3E017E0E0E000EBC410C16511E0AE4891
:1039F00000EBC410006F60B1AB4800EBC410C068AE
:103A0000A94901EBC411C8640420A74901EBC41102
:103A10004870C9E0A44800EBC410416DA24800EB17
:103A2000C410806F0144A04800EBC410806D814237
:103A300054D39D4800EBC410816E9B4800EBC4102A
:103A4000006F0144984800EBC410C165964800EB34
:103A5000C41090ED060AB8EE400AF6EE000A20EE19
:103A6000200ADFED920A80EE201AB6EE000A71EE0F
:103A7000000A8D4800EBC41090ED130AB8EE400A1E
:103A800030EE600ABDEEC00A874800EBC41080ED3E
:103A9000130A854800EBC41090ED130AB8EE400AF3
:103AA000F6EE000A20EE200A9FED801AC0EE010A11
:103AB000B6EE000A30EE800ABDEEC00A10EE100A23
:103AC000794901EBC411C96D0144774800EBC4107A
:103AD000C1650620744901EBC411487064E0724866
:103AE00000EBC410416D704800EBC410C06D814202
:103AF00059D36D4800EBC41090ED060AB8EE400AA9
:103B0000F6EE000A20EE200ADFED680A80EE201AA9
:103B1000B6EE000A71EE000A634800EBC41090EDA7
:103B2000130AB8EE400A30EE600ABDEEC00A5E48E5
:103B300000EBC41080ED130A5B4800EBC410C16CAD
:103B4000594800EBC4100069814204D9564800EB83
:103B5000C410C06C03E0544800EBC4100069524923
:103B600001EBC411C864504800EBC41090ED130A77
:103B7000B8EE400AF6EE000A20EE200ADFED4B0A0E
:103B800080EE201AB6EE000A31EE000ABDEEC00A41
:103B900010EE100A444901EBC411C96D01444248BA
:103BA00000EBC410C16500BFFDE33F4800EBC4104B
:103BB000407808287CD2DFE800F07B0483F8F7F631
:103BC000F5F4394800EBC410416D374800EBC410E0
:103BD000406E81426ED2344800EBC410416D3248D1
:103BE00000EBC410C06D814269D32F4800EBC410B4
:103BF00090ED0D0AB8EE400AF6EE000A60EE200ADB
:103C00009FED2A1A80EE810AF6EE000A30EE200AB5
:103C1000BDEEC00A10EE100A234901EBC411C96CB5
:103C20000844214901EBC411C8641F4800EBC410CB
:103C300090ED130AB8EE400AF6EE000A60EE200A94
:103C40009FED1A1A80EE810AF6EE000A30EE200A85
:103C5000BDEEC00A10EE100A134901EBC411C96D84
:103C60000144114800EBC410C1650F4800EBC410BB
:103C7000416B0D4800EBC41090ED0B0AB8EE400A02
:103C8000F6EE000A60EE200AB7EE001AB6EE000A61
:103C900000EE810ABDEEC00A10EE100A0844024987
:103CA00001EBC41148630AE0846C002000007A44F0
:103CB000FEE3FFE70220FE4901EBC411487025E254
:103CC000FB4800EBC410416EF94800EBC410806E55
:103CD0000844F74901EBC411496D884266D9F4489C
:103CE00000EBC410416DF24800EBC410C06D81427E
:103CF00056D3EF4800EBC41090ED050AB8EE400A29
:103D0000F6EE000A20EE200A5FED180A80EE201A77
:103D1000B6EE000A31EE000ABDEEC00A10EE100A3F
:103D2000E34901EBC411C96C0844E14901EBC4113A
:103D3000C864DF4800EBC410C16CDD4800EBC41060
:103D4000C068814204D2DA4800EBC410C06C03E0C2
:103D5000D74800EBC410C068D54901EBC411C86452
:103D6000D34800EBC41090ED130AB8EE400AF6EE0B
:103D7000000A20EE200A5FED330A80EE201AB6EE2C
:103D8000000A31EE000ABDEEC00A10EE100AC84962
:103D900001EBC411C96D0144C54800EBC410C165F5
:103DA00059E0E6E243E2B2E1FEE055E0C04800EB54
:103DB000C41090ED050AB8EE400ABD4800EBC410EF
:103DC000D0ED0B0AF8EE600AB6EE001A60EE810A3A
:103DD000B7EE001A00EEC10AF6EE000A30EE200A35
:103DE000BDEEC00AB24800EBC41080ED0D0AB04829
:103DF00000EBC410806E08B3AD4800EBC41090ED2A
:103E0000050AB8EE400AAA4800EBC410D0ED0B0A30
:103E1000F8EE600AB6EE001A60EE810AB7EE001AFC
:103E200000EEC10AF6EE000A30EE200ABDEEC00A2E
:103E30009F4800EBC41080ED0D0A07E09C4800EBA2
:103E4000C41040699A4901EBC411486303209849A2
:103E500001EBC411487079E3954800EBC410416E42
:103E6000934800EBC410806E0144914800EBC410ED
:103E7000C06E08448E4901EBC411496D88427DD95A
:103E80008B4800EBC410416D894800EBC410C06D35
:103E9000814274D3864800EBC41090ED0D0AB8EE51
:103EA000400AF6EE000A60EE200A1FED801A80EE4E
:103EB000810AF6EE000A30EE200ABDEEC00A10EECE
:103EC000100A7B4901EBC411C96C0844784901EB25
:103ED000C411C864764800EBC410C16C744800EB90
:103EE000C410C068814204D2714800EBC410C06C99
:103EF00003E06F4800EBC410C0686D4901EBC411CA
:103F0000C8646B4800EBC41090ED130AB8EE400A89
:103F1000F6EE000A60EE200A1FED9C1A80EE810A80
:103F2000F6EE000A30EE200ABDEEC00A10EE100ACE
:103F30005F4901EBC411C96D01445D4800EBC41039
:103F4000C1655B4800EBC41090ED0D0AB8EE400A65
:103F5000574800EBC410D0ED0B0AF8EE600AB6EE3D
:103F6000001A60EE810AB7EE001A00EEC10AF6EE02
:103F7000000A30EE200ABDEEC00A01E006E012E0C1
:103F80004B4800EBC41080ED0D0A0CE0484800EBF4
:103F9000C410C068464901EBC411C86404204449F8
:103FA00001EBC4114870D1E2414800EBC410416EEE
:103FB0003F4800EBC410806E01443D4800EBC41044
:103FC000C06E01443A4800EBC410006F0844384901
:103FD00001EBC411496D88426CD8354800EBC41020
:103FE000416E334800EBC410806E0144304800EB52
:103FF000C410C06E01442E4800EBC410006F014491
:104000002B4800EBC410C165294800EBC41090EDAB
:104010000C0AB8EE400AF6EE000A60EE200AB7EE8F
:10402000001AB6EE000A00EE810ABDEEC00A204872
:1040300000EBC41080ED0E0A1D4800EBC41090ED9B
:104040000E0AB8EE400AF6EE000A20EE200A1FED36
:10405000E91AC0EE010A164800EBC41090ED130AED
:10406000B8EE400A30EE600AF6EE000A30EE200AA2
:10407000BDEEC00A0E4800EBC41080ED130A0C48D8
:1040800000EBC41090ED130AB8EE400AF6EE000AF9
:1040900060EE200A1FEDFB1A80EE810AF6EE000AA0
:1040A00030EE200ABDEEC00A10EE100A004902E010
:1040B000846C00202AE001EBC411C96D0144FD4865
:1040C00000EBC410C165FB4800EBC410816BF948DC
:1040D00000EBC41090ED0C0AB8EE400AF6EE000AB0
:1040E00060EE200AB7EE001AB6EE000A00EE810A72
:1040F000BDEEC00A10EE100A0144EE4800EBC410F9
:1041000081630520EB4901EBC41148701EE2E948C8
:1041100000EBC410416EE74800EBC410806E014410
:10412000E44800EBC410C06E0144E24800EBC41048
:10413000006F0144DF4800EBC410406F0844DD49C4
:1041400001EBC411496D88426BD9DA4800EBC41009
:10415000416DD84800EBC410C06D814266D3D5488C
:1041600000EBC41090ED0E0AB8EE400AF6EE000A1D
:1041700020EE200A9FEDD01AC0EE010ACD4800EBD8
:10418000C41090ED130AB8EE400A30EE600AF6EE65
:10419000000A30EE200ABDEEC00AC64800EBC4108B
:1041A00080ED130AC34800EBC41090ED130AB8EE7B
:1041B000400AF6EE000A60EE200A9FEDBF1A80EE7C
:1041C000810AF6EE000A30EE200ABDEEC00A10EEBB
:1041D000100AB84901EBC411C96D0144B54800EBA0
:1041E000C410C165B34800EBC410816BB14800EB4B
:1041F000C41090ED0C0AB8EE400AF6EE000A60EE2C
:10420000200AB7EE001AB6EE000A00EE810ABDEEF3
:10421000C00A10EE100A0144A64800EBC4108163E6
:1042200004E00620A34901EBC41148708EE1A148C7
:1042300000EBC410416E9F4800EBC410806E014437
:104240009C4800EBC410C06E01449A4800EBC410B7
:10425000006F0144974800EBC410406F014495483B
:1042600000EBC410806F0844924901EBC411496D02
:1042700088424DD98F4800EBC410416D8D4800EB4A
:10428000C410C06D814273D38A4800EBC41090ED16
:10429000060AB8EE400AF6EE000A20EE200A9FED6C
:1042A000861AC0EE010A834800EBC41090ED130A91
:1042B000B8EE400A30EE600AF6EE000A30EE200A50
:1042C000BDEEC00A7B4800EBC41080ED130A7948AC
:1042D00000EBC41090ED130AB8EE400AF6EE000AA7
:1042E00060EE200A9FED741A80EE810AF6EE000A55
:1042F00030EE200ABDEEC00A10EE100A6D4901EB47
:10430000C411C96D01446B4800EBC410C1652FE0B6
:10431000684800EBC410806FE8B1664800EBC41039
:1043200090ED060AB8EE400A624800EBC410D0EDEA
:104330000C0AF8EE600AB6EE001A00EEC10AF6EEBC
:10434000000A30EE200ABDEEC00A5A4800EBC41045
:1043500080ED0E0A07E0574800EBC410816955480C
:1043600000EBC41081630720524901EBC41148706F
:10437000ECE0504800EBC410416E4E4800EBC41016
:10438000806E01444B4800EBC410C06E01444948A4
:1043900000EBC410006F0144464800EBC410406FAE
:1043A0000144444800E0D2E000EBC410806F0144B7
:1043B000404800EBC410C06F08443E4901EBC411F3
:1043C000496D884275D93B4800EBC410416D3948AE
:1043D00000EBC410C06D81426BD3364800EBC410B3
:1043E00090ED0E0AB8EE400AF6EE000A20EE200A22
:1043F0009FED311AC0EE010A2E4800EBC41090ED7B
:10440000130AB8EE400A30EE600AF6EE000A30EE0B
:10441000200ABDEEC00A274800EBC41080ED130A45
:10442000244800EBC410C06CB0F1E04F04D2214826
:1044300000EBC410C06C03E01E4800EBC410006920
:104440001C4901EBC411C8641A4800EBC410C16CCC
:10445000184800EBC4100069814204D9154800EBEC
:10446000C410C06C03E0134800EBC410006911498C
:1044700001EBC411C8640F4800EBC41090ED130A9F
:10448000B8EE400AF6EE000A60EE200A9FED0A1A26
:1044900080EE810AF6EE000A30EE200ABDEEC00A78
:1044A00010EE100A034901EBC411C96D014405E087
:1044B0004BE049E0846C002000007A44264800EB81
:1044C000C410C165244800EBC410816B224800EB86
:1044D000C41090ED0C0AB8EE400AF6EE000A60EE49
:1044E000200AB7EE001AB6EE000A00EE810ABDEE11
:1044F000C00A10EE100A814221D9174800EBC410FF
:1045000090ED0E0AB8EE400A134800EBC410D0ED4F
:104510000C0AF8EE600AB6EE001A60EE810AB7EEF9
:10452000001A00EEC10AF6EE000A30EE200ABDEED7
:10453000C00A094800EBC41080ED0E0A04E0002117
:10454000054800EBC410816300E000BF00BF0248D3
:1045500000EBC410C06C10BD846C00202DE9F05F2E
:1045600004460E4615461F46DDE90CABDDE90A8917
:10457000164800EBC4100670144800EBC4108560A8
:10458000124800EBC410C564104800EBC410C760AB
:104590000E4800EBC410C0F810800C4800EBC410AB
:1045A000C0F85890094800EBC410C0F81CA0074898
:1045B00000EBC410C0F820B02046FEF781FA204678
:1045C00009F080FC0020BDE8F09F0000846C002012
:1045D0000748006800F0006040B10548806840F07E
:1045E00000600349886000200249086370470000AA
:1045F00000600240D00100200748406800F0200021
:1046000040B10548C06840F020000349C860002060
:10461000024908607047000000600240D00100209D
:104620000548406800F4001028B10348C06840F411
:1046300000100149C86070470060024005484068AA
:1046400000F0006028B10348C06840F000600149F4
:10465000C8607047006002400648006800F400101F
:1046600038B104480830006840F4001001490831AE
:1046700008607047046402400848006800F0006069
:1046800050B106480830006840F000600349083126
:10469000086000200249086070470000046402407E
:1046A000D00100201CB501202B4908802B4908802F
:1046B000002000900346032210210190284801F0B9
:1046C0006DFD0120244908802449088000200090C5
:1046D0000346032220210190214801F05FFD21487B
:1046E000006840F001001F4908600846006840F07B
:1046F0000200086008460068086008460068086014
:1047000008460068086008460068086008460068B7
:104710000860C8141349083108601248006840F462
:104720008030104908600846006840F40030086096
:104730000846006808600846006808600846006887
:104740000860084600680860084600680860C814E9
:104750000449143108601CBD7408474200064742F2
:1047600000000240007400407CB54FF4576165487A
:10477000FBF7B4FD2C216448FBF7B0FD00249BE05F
:10478000B7EE000A04EB04115E4800EB810080EDF7
:10479000100A642104EB04125A4800EB8200C16342
:1047A000002104EB0412574800EB8200418342F2DF
:1047B00010712046FFF752F804EB0411514800EB4A
:1047C000810080ED070A9FED510A04EB04114D486A
:1047D00000EB810080ED090A4FF4FA712046FFF7E3
:1047E0003DF804EB0411474800EB810080ED080A16
:1047F000002104EB0412434800EB8200018304EB28
:104800000411404800EB81004461002104EB0412D4
:104810003C4800EB8200418504EB0412394800EB70
:10482000820001859FED3A0A04EB0411354800EB44
:10483000810080ED010A9FED360A04EB0411314836
:1048400000EB810080ED030A4FF4FA712046FFF778
:1048500005F804EB04112B4800EB810080ED000A01
:104860004FF4FA712046FEF7F9FF04EB04112548D6
:1048700000EB810080ED040A42F210712046FEF741
:10488000EDFF04EB04111F4800EB810080ED020AEC
:1048900004EB04111B4800EB8101D1E9030104EB97
:1048A0000412CDE90001174901EB8205E0B295E859
:1048B0000E00FDF739FB641C082CFFF661AF0221E6
:1048C0001048A0F8B0100921A0F8B4100821A0F8F1
:1048D000B8100021A0F8B610A0F8BA100221A0F874
:1048E0007C110A21A0F880110B21A0F8841100216D
:1048F000A0F88211A0F88611EA21C0F8481D02F044
:1049000031FB7CBD7C1800201C280020000000002A
:104910000000A0420246082A05DA044850F82200A6
:104920000180002070474FF0FF30FBE75403002068
:104930003CB500919DED000AB8EE400AF0EE000A89
:1049400020EE200ADFED2E0A80EE201AB6EE000AD5
:1049500031EE000ABDEEC00A8DED010A2DE000EE39
:10496000102AB8EE400AF0EE000A60EE200A9FED31
:10497000241A80EE810AF6EE000A30EE200ABDEE1F
:10498000C00A10EE104A009D2C4400949DED000AD0
:10499000B8EE400AF0EE000A20EE200A9FED181A49
:1049A000C0EE010AB6EE000A30EE800ABDEEC00A83
:1049B00010EE104A019D2C440194019C9C42CED3E0
:1049C0009DED000AB8EE400AF0EE000A20EE200A43
:1049D0009FED0B1AC0EE010A9DED010AB8EE400AE8
:1049E00030EE600AF6EE000A30EE200ABDEEC00A94
:1049F0008DED010ADDE90045C0E900453CBD000040
:104A000000007A443CB500919DED000AB8EE400AE2
:104A1000F0EE000A20EE200ADFED2F0A80EE201AC9
:104A2000B6EE000A31EE000ABDEEC00A8DED010AB5
:104A300013B9002401944AE02DE000EE103AB8EEDC
:104A4000400AF0EE000A20EE200A9FED231AC0EE85
:104A5000010AB6EE000A30EE800ABDEEC00A10EE82
:104A6000104A009D2C4400949DED000AB8EE400AC7
:104A7000F0EE000A20EE200ADFED170A80EE201A81
:104A8000B6EE000A31EE000ABDEEC00A10EE104A82
:104A9000019D2C44019400EE103AB8EE400AF7EE66
:104AA000080A20EE200AF0EE000A20EE200ADFEDD0
:104AB0000A0A80EE201AB6EE000A31EE000ABDEEB8
:104AC000C00A10EE104A009D2C449442B5D3DDE993
:104AD0000045C0E900453CBD00007A447CB5044671
:104AE0009DED060A00EE903AF8EE600AB8EE401A24
:104AF000F6EE001A41EE610AB6EE001A70EE810A77
:104B0000FDEEE00A10EE900A00EE900AF8EEE00AE0
:104B1000B6EE001A20EE811ADFED451AC1EE210A29
:104B2000B6EE001A70EE810AFDEEE00A10EE905A21
:104B30000D440095DDED000AF8EE600AB6EE001AAD
:104B400060EE810A9FED3A1AC0EE811AF6EE000A75
:104B500071EEA00AFDEEE00ACDED010A00EE900A2A
:104B6000F8EEE00AB8EE401AF6EE001A41EE610ADD
:104B7000B6EE001A70EE810AFDEEE00A10EE900A21
:104B80003FE000EE900AF8EEE00AB6EE001A60EEA2
:104B9000810ADFED271A80EEA11AF6EE000A71EE07
:104BA000200AFDEEE00A10EE905A009E3544009572
:104BB000DDED000AF8EE600AB6EE001A20EE811A6A
:104BC000DFED1B1AC1EE210AB6EE001A70EE810A63
:104BD000FDEEE00A10EE905A019E3544019500EE7C
:104BE000900AF8EEE00AB8EE401AF6EE001A41EE2E
:104BF000610AB6EE001A70EE810AFDEEE00A10EED0
:104C0000900AF8EE400AB7EE081A20EE811AF6EE86
:104C1000001AF6EE000A41EE210AFDEEE00A10EE5F
:104C2000905A8542ADDBDDE90056C4E900567CBDF3
:104C300000007A447CB5044600919DED000AB8EE70
:104C4000400AF6EE000A20EE200A9FED3B1AC0EE65
:104C5000010AB6EE000A30EE800ABDEEC00A8DED04
:104C6000010A00EE103AF8EE400AB6EE001AB6EE6F
:104C7000000A00EE810ABDEEC00A10EE100A40E004
:104C800000EE100AB8EE400AF6EE000A20EE200A06
:104C90009FED291AC0EE010AB6EE000A30EE800A36
:104CA000BDEEC00A10EE105A009E354400959DEDF1
:104CB000000AB8EE400AF6EE000A20EE200A9FED48
:104CC0001E1AC0EE010AB6EE000A30EE800ABDEEF2
:104CD000C00A10EE105A019E3544019500EE103ABC
:104CE000B8EE400AF6EE000A60EE200AB7EE001AAF
:104CF000B6EE000A00EE810ABDEEC00A10EE105AB0
:104D0000284400EE103AB8EE400AF6EE000A60EED3
:104D1000200AB6EE001AB6EE000A00EE810ABDEED9
:104D2000C00A10EE105A05449542A9D3DDE9005699
:104D3000C4E900567CBD000000007A443CB50091F7
:104D40009DED000AB8EE400AF6EE000A20EE200AB9
:104D50009FED341AC0EE010AB6EE000A30EE800A6A
:104D6000BDEEC00A8DED010A00EE103AB8EE400A21
:104D7000DFED2D0AB4EEE00AF1EE10FA4BDD2DE086
:104D800000EE103AB8EE400AF6EE000A20EE200AD5
:104D9000DFED240A80EE201AB6EE000A31EE000A9A
:104DA000BDEEC00A10EE104A009D2C4400949DED0B
:104DB000000AB8EE400AF6EE000A20EE200ADFED07
:104DC000190A80EE201AB6EE000A31EE000ABDEE96
:104DD000C00A10EE104A019D2C44019400EE103AD6
:104DE000B8EE400AF7EE080A20EE200AF6EE000AB6
:104DF00020EE200ADFED0B0A80EE201AB6EE000A44
:104E000031EE000ABDEEC00A10EE104A009D2C449F
:104E10009442B5D301E000240194DDE90045C0E9E6
:104E200000453CBD00007A440000FA44F0B52DED89
:104E3000028B83B007460D4616461C46B0EE408AEC
:104E400001959DED010AB8EE400AF0EE000A20EE51
:104E5000200ADFED460A80EE201AB6EE000A31EE97
:104E6000000ABDEEC00A8DED020AB0EE480A0298B3
:104E7000FEF78AFB8DED000AECB300EE104AB8EEA7
:104E8000400AF0EE000A20EE200ADFED380A80EE3C
:104E9000201AB7EE000AB4EEC01AF1EE10FA57DD90
:104EA000B54255D237E000EE104AB8EE400AF0EEB7
:104EB000000A20EE200A9FED2D1AC0EE010AB6EE80
:104EC000000A30EE800ABDEEC00A10EE100A019909
:104ED000084401909DED010AB8EE400AF0EE000A88
:104EE00020EE200ADFED210A80EE201AB6EE000A3D
:104EF00031EE000A00E02BE0BDEEC00A8DED020AA3
:104F0000B0EE480A0298FEF73FFBDDED000A30EEF6
:104F1000200A8DED000A00EE104AB8EE400AF7EEC6
:104F2000080A20EE200AF0EE000A20EE200ADFED4B
:104F30000F0A80EE201AB6EE000A31EE000ABDEE2E
:104F4000C00A10EE100A01990844B042ABD304E045
:104F500001959FED070A8DED000A9DE8070087E89F
:104F6000070003B0BDEC028BF0BD000000007A44E6
:104F7000000000003CB500EE103AB8EE400AF6EE34
:104F8000000A20EE200ADFED370A80EE201AB6EE86
:104F9000000A31EE000ABDEEC00A10EE104A0C44C1
:104FA00000949DED000AB8EE400AF6EE000A20EEED
:104FB000200ADFED2C0A80EE201AB6EE000A31EE50
:104FC000000ABDEEC00A8DED010A2DE000EE103A98
:104FD000B8EE400AF6EE000A20EE200A9FED211AF4
:104FE000C0EE010AB6EE000A30EE800ABDEEC00A3D
:104FF00010EE104A009D2C4400949DED000AB8EE7E
:10500000400AF6EE000A20EE200ADFED160A80EED6
:10501000201AB6EE000A31EE000ABDEEC00A10EE0C
:10502000104A019D2C44019400EE103AB8EE400A5B
:10503000F6EE000A20EE200A9FED0B1AC0EE010AE0
:10504000B6EE000A30EE800ABDEEC00A10EE104A3D
:10505000009D2C449442B9D3DDE90045C0E90045E8
:105060003CBD000000007A440000FA443CB500EE6C
:10507000103AB8EE400AF0EE000A20EE200A9FED4A
:10508000431AC0EE010A00EE101AB8EE400A30EEE4
:10509000600AF6EE000A30EE200ABDEEC00A8DED81
:1050A000000A9DED000AB8EE400AF0EE000A20EE7C
:1050B000200ADFED360A80EE201AB6EE000A31EE45
:1050C000000ABDEEC00A8DED010A1BB90092002452
:1050D000019455E038E000EE103AB8EE400AF0EEE8
:1050E000000A20EE200A9FED291AC0EE010A9DED6C
:1050F000000AB8EE400A30EE600AF6EE000A30EE22
:10510000200ABDEEC00A8DED000A009C944203D334
:10511000009CB4F1E04F00D900929DED000AB8EE7A
:10512000400AF0EE000A60EE200A9FED181A80EEA9
:10513000810AF6EE000A30EE200ABDEEC00A10EE3B
:10514000104A019D2C44019400EE103AB8EE400A3A
:10515000F0EE000A20EE200A9FED0C1AC0EE010AC4
:10516000B0EE001A80EE810AF6EE000A30EE200A58
:10517000BDEEC00A10EE104A1444009DAC42AAD302
:10518000DDE90045C0E900453CBD000000007A446F
:105190007CB504469DED060A00EE903AF8EE600AF2
:1051A000B8EE401AF6EE001A41EE610AB6EE001AA9
:1051B00070EE810AFDEEE00A10EE900A00EE900A11
:1051C000F8EE600AB6EE001A60EE810ADFED4E1AC4
:1051D00080EEA11A00EE901AF8EE600A70EEC10A95
:1051E000B6EE001A70EE810AFDEEE00ACDED000A7F
:1051F000DDED000AF8EE600AB6EE001A60EE810AF4
:105200009FED411AC0EE811AF6EE000A71EEA00A77
:10521000FDEEE00ACDED010A00EE900AF8EE600A1C
:10522000B8EE401AF6EE001A41EE610AB6EE001A28
:1052300070EE810AFDEEE00A10EE900A4AE000EE00
:10524000900AF8EE600AB6EE001A60EE810ADFED11
:105250002E1A80EEA11ADDED000AF8EE600A70EE5B
:10526000C10AB6EE001A70EE810AFDEEE00ACDED3D
:10527000000A009D954203D3009DB5F1E06F00D96F
:105280000092DDED000AF8EE600AB6EE001A60EE5C
:10529000810A9FED1D1AC0EE811AF6EE000A71EE2A
:1052A000A00AFDEEE00A10EE905A019E35440195E9
:1052B00000EE900AF8EE600AB8EE401AF6EE001A18
:1052C00041EE610AB6EE001A70EE810AFDEEE00AC8
:1052D00010EE900AF8EE400AB6EE001A60EE810A6F
:1052E000B0EE001AC0EE811AF6EE000A71EEA00AC6
:1052F000FDEEE00A10EE905A8542A0D3DDE900569B
:10530000C4E900567CBD000000007A447CB5044628
:1053100000EE103AF8EE400AB6EE001AB6EE000AB9
:1053200000EE810ABDEEC00A10EE100A00EE100A6F
:10533000B8EE400AF6EE000A20EE200A9FED471A6A
:10534000C0EE010A00EE101AB8EE400A30EE600A14
:10535000F6EE000A30EE200ABDEEC00A8DED000A1E
:105360009DED000AB8EE400AF6EE000A20EE200A93
:10537000DFED3A0A80EE201AB6EE000A31EE000A9E
:10538000BDEEC00A8DED010A00EE103AF8EE400ABB
:10539000B6EE001AB6EE000A00EE810ABDEEC00AB3
:1053A00010EE105A28443FE000EE100AB8EE400A12
:1053B000F6EE000A20EE200A9FED281AC0EE010A40
:1053C0009DED000AB8EE400A30EE600AF6EE000AE3
:1053D00030EE200ABDEEC00A8DED000A9DED000AF8
:1053E000B8EE400AF6EE000A60EE200A9FED1B1AA6
:1053F00080EE810AF6EE000A30EE200ABDEEC00A09
:1054000010EE105A019E3544019500EE103AF8EE68
:10541000400AB6EE001AB6EE000A00EE810ABDEEB2
:10542000C00A10EE105A284400EE103AB8EE400AB6
:10543000F6EE000A60EE200AB6EE001AB6EE000A9A
:1054400000EE810ABDEEC00A10EE105A05449542E6
:10545000AAD3DDE90056C4E900567CBD00007A44B9
:105460003CB500EE103AB8EE400AF6EE000A20EE27
:10547000200A9FED461AC0EE010A00EE101AB8EE9F
:10548000400A30EE600AF6EE000A30EE200ABDEE69
:10549000C00A8DED000A9DED000AB8EE400AF6EE56
:1054A000000A20EE200ADFED390A80EE201AB6EE5F
:1054B000000A31EE000ABDEEC00A8DED010A00EED1
:1054C000103AB8EE400ADFED320AB4EEE00AF1EE2F
:1054D00010FA52DD38E000EE103AB8EE400AF6EE6F
:1054E000000A20EE200A9FED291AC0EE010A9DED68
:1054F000000AB8EE400A30EE600AF6EE000A30EE1E
:10550000200ABDEEC00A8DED000A009C944203D330
:10551000009CB4F1E04F00D900929DED000AB8EE76
:10552000400AF6EE000A20EE200A9FED181AC0EE9F
:10553000010AB6EE000A30EE800ABDEEC00A10EE97
:10554000104A019D2C44019400EE103AB8EE400A36
:10555000F6EE000A20EE200A9FED0D1AC0EE010AB9
:10556000B6EE000A30EE800ABDEEC00A10EE104A18
:105570001444009DAC42AED302E00092002401949A
:10558000DDE90045C0E900453CBD000000007A446B
:105590000000FA44F0B52DED028B83B007460E46AD
:1055A00015461C46B0EE408A00EE104AB8EE400A9E
:1055B000F0EE000A20EE200A9FED581AC0EE010A14
:1055C00000EE106AB8EE400A30EE600AF6EE000A0D
:1055D00030EE200ABDEEC00A8DED010A9DED010AF4
:1055E000B8EE400AF0EE000A20EE200ADFED4B0A8A
:1055F00080EE201AB6EE000A31EE000ABDEEC00AB7
:105600008DED020AB0EE480A0298FDF7BDFF8DED60
:10561000000A002C74D000EE104AB8EE400AF0EEFA
:10562000000A20EE200A9FED3D1AC0EE010AB7EEF7
:10563000000AF4EEC00AF1EE10FA61DDB5425FD265
:1056400040E000EE104AB8EE400AF0EE000A20EE0C
:10565000200A9FED321AC0EE010A9DED010AB8EE54
:10566000400A30EE600AF6EE000A30EE200ABDEE87
:10567000C00A8DED010A0198A84203D30198B0F148
:10568000E04F00D901959DED010AB8EE400AF0EE19
:10569000000A60EE200A9FED211A80EE810AF6EEE4
:1056A000000A30EE200ABDEEC00A8DED020AB0EE0F
:1056B000480A0298FDF768FFDDED000A30EE200A87
:1056C0008DED000A00EE104AB8EE400AF0EE000A36
:1056D00060EE200A9FED111A80EE810AB0EE001AEA
:1056E000C0EE010AB6EE000A30EE800ABDEEC00A36
:1056F00010EE100A284401998842A2D305E0FFE782
:1057000001959FED070A8DED000A9DE8070087E8E7
:10571000070003B0BDEC028BF0BD000000007A442E
:10572000000000003CB500EE103AB8EE400AF6EE7C
:10573000000A20EE200A9FED3D1AC0EE010A00EE9D
:10574000101AB8EE400A30EE600AF6EE000A30EEAB
:10575000200ABDEEC00A8DED000A9DED000AB8EEEC
:10576000400AF6EE000A20EE200ADFED300A80EE55
:10577000201AB6EE000A31EE000ABDEEC00A8DED29
:10578000010A30E000EE103AB8EE400AF6EE000AE8
:1057900020EE200A9FED251AC0EE010A9DED000AB9
:1057A000B8EE400A30EE600AF6EE000A30EE200A4B
:1057B000BDEEC00A8DED000A9DED000AB8EE400A6C
:1057C000F6EE000A20EE200A9FED181AC0EE010A3C
:1057D000B6EE000A30EE800ABDEEC00A10EE104AA6
:1057E000019D2C44019400EE103AB8EE400AF6EE0A
:1057F000000A20EE200A9FED0E1AC0EE010A00EE0C
:10580000102AB8EE400A30EE800AF6EE000A30EEBA
:10581000200ABDEEC00A10EE104A009DAC42B1D382
:10582000DDE90045C0E900453CBD000000007A44C8
:105830000000FA440146082904DA044850F821001F
:10584000008870474FF0FF30FBE700003403002072
:105850000246082A05DA044850F822000180002098
:1058600070474FF0FF30FBE73403002001494861E7
:10587000704700000090024001460868C0F30D40E8
:10588000704700B502460023106800F0004058B988
:10589000106800F4004038B9106800F4807018B146
:1058A0001046FFF7E9FF0346184600BD10B501E0BA
:1058B0000FF0E4FA06480068FFF7E3FF0028F7D18D
:1058C0004020FFF7D3FF4FF48030FFF7CFFF10BD2C
:1058D000CC0800201EB50021002200920192029205
:1058E000214A1268126802F0004282B1002200923E
:1058F0001E4A526902F0800222B180221B4B5A617B
:1059000000229A609DE81C0080E81C001EBD164A1B
:105910001268126802F40042B2B9134A126812689F
:1059200002F4807282B1104A1268126802F40072A6
:1059300052B10D4A12681268C2F30D42111F0A4A91
:1059400012689268019200E000210091064A1268F4
:105950000292054A1268D268034B1A609DE81C0047
:1059600080E81C0000BFD1E7CC0800200090024076
:105970007CB50546042D58DA2D48006840F2FF1129
:1059800008432B490860284600F09CFC054605EBBF
:10599000450000EBC500274901EB80040120216987
:1059A00008800321CDE90010237F00FA03F10023D2
:1059B0000222606900F0F2FB94F82820217F6069E0
:1059C00000F0CCFB01200321CDE90010637F00FA39
:1059D00003F100230222A06900F0E0FB94F82820E4
:1059E000617FA06900F0BAFB4FF6FF702168C862C2
:1059F0002068008B40F00100216808832068008B3C
:105A000040F4807021680883002021684862206883
:105A1000008940F00200216808812068008840F079
:105A200001002168088000207CBD4FF0FF30FBE7BB
:105A3000303802400C06002010B51C4840681C4954
:105A40000968401AB0F57A7F0CD91848406818499F
:105A50000860002404E0204600F02EF8601CC4B268
:105A6000042CF8DB00241DE00021204600F0B6F8ED
:105A700004EB44010F4A42F821000121204600F0C6
:105A8000ADF804EB44010B4A02EB8101486020466B
:105A900000F012F804EB4401064A02EB8101886031
:105AA000601CC4B2042CDFDB10BD0000FC0500202C
:105AB000D0060020A063002000B50246042A7DDA4B
:105AC000104600F0FFFB0246042A7DDA02EB42009A
:105AD00000EBC2003E4901EB8000406800683D4990
