:020000040804EE
:10000000989A0120B5020408C3020408C502040836
:10001000C7020408C9020408CB0204085A350608BE
:10002000000000000000000000000000CF020408F3
:10003000D102040800000000D3020408D50204081D
:10004000D7020408D9020408DB02040875E7040893
:10005000DF020408E1020408E3020408E5020408E0
:10006000E7020408E9020408EB020408ED020408B0
:10007000EF020408F1020408698004089180040872
:10008000F7020408B9800408FB020408455104087B
:1000900029500408010304080303040805030408A5
:1000A00085190508451A0508E51905080D03040812
:1000B000ED1A0508391B05088D1B050815030408F2
:1000C00017030408190304081B0304081D0304088C
:1000D0001F0304085129050823030408CD29050836
:1000E0002703040861E404082B030408ED1C050839
:1000F000AD1D05084D1D050833030408D58004080F
:10010000370304085DEE0408ED1B05083D030408F1
:10011000C9260508410304084D1C050845030408C9
:100120004703040849030408F180040829810408EE
:100130004F030408499204085303040855030408B4
:1001400057030408590304085B0304087DD004081E
:100150005F0304085D8104087D81040865030408C9
:1001600067030408690304086B0304086D030408AB
:100170006F0304087103040873030408750304087B
:10018000770304087903040800F002F800F069F826
:100190000AA090E8000C82448344AAF10107DA45E2
:1001A00001D100F05EF8AFF2090EBAE80F0013F0CB
:1001B000010F18BFFB1A43F001031847383E020035
:1001C000583E02000A444FF0000C10F8013B13F0B7
:1001D000070408BF10F8014B1D1108BF10F8015BA0
:1001E000641E05D010F8016B641E01F8016BF9D193
:1001F00013F0080F1EBF10F8014BAD1C0C1B09D1EA
:100200006D1E58BF01F801CBFAD505E014F8016B5B
:1002100001F8016B6D1EF9D59142D6D370470000ED
:100220000023002400250026103A28BF78C1FBD8FF
:10023000520728BF30C148BF0B607047642900F0E7
:100240005581782900F08E81732900F07D8400208B
:1002500070471FB523F07CF900F061FA1FBD10B59F
:1002600010BD00F09FFC1146FFF7F3FF1CF0ACF847
:1002700000F0BDFA03B4FFF7F2FF03BC16F057FC21
:100280000B49D1F800C04A685CF8043B1068184478
:1002900042F8040B8C4528BFA1F1DC0C8A4228BF30
:1002A000A1F1DC02C1F800C04A6020F000407047B4
:1002B000306601203448016841F470010160334820
:1002C0000047FEE7FEE7FEE7FEE7FEE7FEE7FEE7A4
:1002D000FEE7FEE7FEE7FEE7FEE7FEE7FEE7FEE7F6
:1002E000FEE7FEE7FEE7FEE7FEE7FEE7FEE7FEE7E6
:1002F000FEE7FEE7FEE7FEE7FEE7FEE7FEE7FEE7D6
:10030000FEE7FEE7FEE7FEE7FEE7FEE7FEE7FEE7C5
:10031000FEE7FEE7FEE7FEE7FEE7FEE7FEE7FEE7B5
:10032000FEE7FEE7FEE7FEE7FEE7FEE7FEE7FEE7A5
:10033000FEE7FEE7FEE7FEE7FEE7FEE7FEE7FEE795
:10034000FEE7FEE7FEE7FEE7FEE7FEE7FEE7FEE785
:10035000FEE7FEE7FEE7FEE7FEE7FEE7FEE7FEE775
:10036000FEE7FEE7FEE7FEE7FEE7FEE7FEE7FEE765
:10037000FEE7FEE7FEE7FEE7FEE70000044805496A
:10038000034A054B7047000088ED00E0890104082E
:1003900098660120989A0120986601207047B2F172
:1003A00020030AD5C2F1200301FA02F120FA03F377
:1003B00000FA02F041EA0301704700FA03F14FF03E
:1003C00000007047B2F120030AD5C2F1200320FAE1
:1003D00002F001FA03F321FA02F140EA0300704748
:1003E00021FA03F04FF00001704710B54C1084EA79
:1003F000530404D54042C1F1000138BF491E1B42DD
:1004000004D55242C3F1000338BF5B1E00F0BAFAB4
:1004100014F0804F04D04042C1F1000138BF491EA2
:1004200014F0004F04D05242C3F1000338BF5B1EEA
:1004300010BD00000FB4044910B503AA029800F0E3
:1004400087FB10BC5DF814FBD401002070B5044696
:1004500085690068C10601D5302600E02026C00766
:1004600007D070BDD4E9012130469047206A401C76
:1004700020626D1EF6D570BD70B5044685690078A2
:10048000C00707D170BDD4E9012120209047206A20
:10049000401C20626D1EF6D570BD70B50C46054639
:1004A000012A05D02878800600D5EA69002302E0F9
:1004B000012305E05B1C934202D2E05C0028F9D1E5
:1004C000A869E618C01AA861286A18442862284654
:1004D000FFF7BCFF04E0D5E9012114F8010B9047B8
:1004E000B442F8D32846FFF7C7FF70BD2DE9F041AD
:1004F0000646002410687529314616A510D0AFF3C2
:100500000080002802DA404213A507E031688A071C
:1005100001D512A502E0490704D511A5012401E087
:10052000AFF3008000210A2206F1240709E0B0FBA6
:10053000F2FCB0FBF2F302FB1C003030785418469A
:10054000491C0028F3D123462A463046BDE8F04135
:1005500000F08FBA000000002D0000002B0000000A
:100560002000000070B504460D4621461068AFF328
:1005700000802188090502D50F4A7A4402E00E4A1C
:100580007A440E32002104F1240305E000F00F0646
:100590000009965D5E54491C0028F7D1207800239D
:1005A000000704D5702D02D009B102231132204674
:1005B000BDE8704000F05DBA263902002DE9F05F19
:1005C000894604464FF0000ADFF824B1FB44C0F826
:1005D00020A02046E168884700287DD0252806D045
:1005E000D4E901219047206A401C2062F1E70025F0
:1005F0005F462046E16888472028064607DB312E03
:1006000005D2B81910F8200C08B10543F1E7A80786
:1006100001D525F00405C4F81CA00027C4F818A0D3
:100620002A2E09D0304616F07BFA38B304EB87083F
:10063000303EC8F8186019E059F8041B204604EB56
:1006400087029161E1688847012F064618D1E06969
:10065000002820DA25F020051DE0D8F8180000EB6E
:10066000800006EB40003038C8F818002046E168EA
:100670008847064616F054FA0028EED1012F0AD01A
:100680002E2E08D12046E16888477F1C0646022F9F
:1006900045F02005C4DBA069002803DA404245F09C
:1006A0000105A061E80701D025F01005A6B1A6F16B
:1006B0004100192802D8203645F400654A463146E3
:1006C000204625604D46FFF7B9FD60B1012807D0EF
:1006D000ED1D25F0070000E007E000F1080978E7CC
:1006E00005F1040975E730467AE7206ABDE8F09F16
:1006F000FC3802000B4910B5A1F17C020A4CC2E99A
:100700003712372106E000EB104342F82130074B47
:1007100000FB03400B1EA1F10101F4DC10BD012020
:10072000E8E70000D0650120E119D666CD0D010093
:1007300040EA010310B59B070FD1042A0DD310C85E
:1007400008C9121F9C42F8D020BA19BA884201D9B0
:10075000012010BD4FF0FF3010BD1AB1D30703D0F8
:10076000521C07E0002010BD10F8013B11F8014BAE
:100770001B1B07D110F8013B11F8014B1B1B01D1CA
:10078000921EF1D1184610BD10B5431C02E010F8BE
:10079000011B71B18107FAD14FF0013202C88C1AE6
:1007A0008C4314EAC211F9D0C01A0A0603D0C01E45
:1007B00010BDC01A10BD0A0401D0801E10BD090270
:1007C000FCD0401E10BD421E12F8013F002BFBD191
:1007D00011F8013B002B02F8013BF9D1704770473B
:1007E000704770477047007B00F08000704710B57D
:1007F0000446AFF300802046BDE81040FFF73ABD45
:10080000120A0000032A40F2308010F0030C00F0BE
:10081000158011F8013BBCF1020F624498BF11F83A
:1008200001CB00F8013B38BF11F8013BA2F10402F3
:1008300098BF00F801CB38BF00F8013B11F003036B
:1008400000F02580083AC0F0088051F8043B083ACF
:1008500051F804CBA0E80810F5E7121D5CBF51F871
:10086000043B40F8043BAFF30080D20724BF11F8EB
:10087000013B11F801CB48BF11F8012B24BF00F850
:10088000013B00F801CB48BF00F8012B704710B5C1
:10089000203AC0F00B80B1E81850203AA0E8185078
:1008A000B1E81850A0E81850BFF4F5AF5FEA027C39
:1008B00024BFB1E81850A0E8185044BF18C918C0A8
:1008C000BDE810405FEA827C24BF51F8043B40F849
:1008D000043B08BF7047D20728BF31F8023B48BF2E
:1008E00011F8012B28BF20F8023B48BF00F8012B6C
:1008F00070474FF000020429C0F0128010F0030C82
:1009000000F01B80CCF1040CBCF1020F18BF00F802
:10091000012BA8BF20F8022BA1EB0C0100F00DB8B1
:100920005FEAC17C24BF00F8012B00F8012B48BF0F
:1009300000F8012B70474FF0000200B513469446B3
:100940009646203922BFA0E80C50A0E80C50B1F127
:100950002001BFF4F7AF090728BFA0E80C5048BF3B
:100960000CC05DF804EB890028BF40F8042B08BFD9
:10097000704748BF20F8022B11F0804F18BF00F8D5
:10098000012B704753EA020C00F069802DE9F04B0F
:100990004FF00006002B1FBFB3FA83F503FA05F4EE
:1009A00024FA05F65E4012BF1643B2FA82F502FA47
:1009B00005F4C5F120051EBF22FA05FC44EA0C042B
:1009C000203556EA044C4FEA144418BF641C4FF01B
:1009D00000084FF00009904271EB030C39D3002955
:1009E00019BFB1FA81F701FA07F6B0FA80F700FAF9
:1009F00007F6C7F120071EBF20FA07FC46EA0C06DF
:100A00002037B6FBF4FCA7EB0507103F07F01F0BE0
:100A1000CBF120060CFA0BFB2CFA06F644BFB346CA
:100A20000026202FA4BF5E464FF0000B5BEA060CA9
:100A300008BF4FF0010B19EB0B09ABFB027C48EB35
:100A40000608C01B06FB02CC0BFB03CC71EB0C01B0
:100A5000C1E70B46024641464846BDE8F08B13B558
:100A60004FF000004FF00001AFF30080BDE81C40E4
:100A700070472DE9F0470D4699469246044600F12D
:100A800024080168880604D5E06921F0100121607E
:100A900000E00120A84201DD471B00E00027A1691A
:100AA0007A1902EB0900081AA0612078C00602D466
:100AB0002046FFF7CBFC002608E0D4E901211AF814
:100AC00006009047206A401C761C20624E45F4DBED
:100AD0002078C0060AD52046FFF7B8FC06E0D4E926
:100AE000012130209047206A401C2062381EA7F167
:100AF0000107F4DC07E0D4E9012118F8050090476C
:100B0000206A401C2062281EA5F10105F3DC204666
:100B1000FFF7B2FC2078000602D50220BDE8F0877E
:100B20000120FBE710B5436913B1AFF3008001E08A
:100B3000FFF7B3FC012010BD127800F124010A7008
:100B400000224A700122EDE711684FF0FF32E9E719
:100B5000074B70B50D467B4400F011F8044628465B
:100B6000FFF741FE10B14FF0FF3070BD204670BD61
:100B7000C792010001694A1C02610878704700B5FC
:100B80008FB0CDE901310021059105497944CDE9C6
:100B9000031011466846FFF711FD0FB000BD0000BD
:100BA000E5FFFFFF754600F023F8AE4605006946F5
:100BB000534620F00700854618B020B5FFF7DEFB4E
:100BC000BDE820404FF000064FF000074FF000084E
:100BD0004FF0000B21F00701AC46ACE8C009ACE8CF
:100BE000C009ACE8C009ACE8C0098D4670470000F8
:100BF000004870473866012010B504466748006B0E
:100C000050B9207840B96649D1F894050B2115F008
:100C10001FFF08B101202070607838B920780128C2
:100C200004D160700020A0705C49C862607805281B
:100C300068D008DC01280DD0022812D0032825D066
:100C4000042876D157E0062876D0072873D0FF28ED
:100C5000F7D18DE0072015F0C5FE08B902206070BD
:100C60008FE0072015F0BEFE78B9082015F0BAFE17
:100C700058B94A48C16A4A48D0F82C05814202DA7C
:100C80000320607001E0072060707AE0082015F012
:100C9000A9FE78BB4249C86F1D2115F0D9FEB8B135
:100CA000182100200BF012F920BB3C48C36A3D48D4
:100CB00050F823203C4890F8C01F082002F00CFC9C
:100CC0003648C06A401C3549C8620420607011E093
:100CD0003248C36A334850F82320334890F8C01F85
:100CE000082002F0F9FB2D48C06A401C2B49C8625D
:100CF0000420607045E0082015F074FE08B9052056
:100D000060703EE010F0A4FD2849D1F81811401A97
:100D10000A21B0FBF1F050280AD92148D0F830253B
:100D2000214890F8C01F082002F0D6FB0620607012
:100D300027E025E000E010E010F08AFD1B49D1F823
:100D40001811401A0A21B0FBF1F11548D0F84805F6
:100D5000814201D90220607013E0072015F042FEA5
:100D600028B9082015F03EFE08B9FF20607008E0A1
:100D70000020607020700120A0700849086300E026
:100D800000BF00BF6078217B884206D06078207366
:100D900010F05EFD0549C1F8180110BD945F0020F8
:100DA000B82B0020EC300020181C0020145D00201F
:100DB00010B50446294890F8B000012807D127480B
:100DC00090F8B10018B90121244880F8B11060787A
:100DD000012804D0022818D0FF2830D12BE0E07879
:100DE000401CE070E1781E48D0F8AC05814209D380
:100DF0000020E07000221921104615F008FE0220A4
:100E0000607001E0FF2060701AE010F021FD1349CE
:100E1000D1F8B810401A0A21B0FBF1F11048D0F80F
:100E2000B405814206D901221921002015F0EFFDF9
:100E3000FF20607004E000206070207000E000BFC0
:100E400000BF6078217B884206D06078207310F064
:100E5000FFFC0249C1F8B80010BD0000145D00207D
:100E6000B82B002010B50446607828B920780128F6
:100E700002D160700020A070607807286FD007DC76
:100E800007286DD2DFE800F06C113C6DA4BFE700CD
:100E90000A287DD004DC08287BD0092860D11FE116
:100EA0000B2877D0FF28F9D150E1042015F09AFDE6
:100EB00028BB072015F096FD08BBAE48D0F8842368
:100EC000A0F57A6090F8B01F042002F005FBA94855
:100ED000D0F82825A0F57A6090F8BC1F072002F012
:100EE000FBFA02206070A349D1F894050B2115F09C
:100EF000AFFD10B1A048C06908B10B2060702CE1B3
:100F0000042015F06FFD58B19A48D0F84412D0F87B
:100F1000840301449948D0F80404B0EB510F1DD26A
:100F20009448D0F88823A0F57A6090F8A41F012097
:100F300002F0D2FA8F49D1F894050B2115F088FD03
:100F400010B18D48C06910B10B20607006E000221E
:100F50001221104615F05BFD03206070FDE08BE070
:100F6000FAE08548006B012806D08249D1F8940543
:100F70000B2115F06DFD50BB142100200AF0A6FFD7
:100F800028BB10F065FC7E49D1F8F810401A02E049
:100F9000B5E08CE0C6E00A21B0FBF1F17548D0F86D
:100FA000A403814213D9012015F01CFD78B9072054
:100FB00015F018FD58B900221321104615F027FD31
:100FC00000221421104615F022FD04206070C4E0B8
:100FD00010F03EFC6A49D1F8F810401A0A21B0FB23
:100FE000F1F16448D0F88C0381420BD9012203212E
:100FF000002015F00CFD00221121104615F007FD10
:1010000005206070A9E010F023FC5D49D1F8F810CC
:10101000401A0A21B0FBF1F15648D0F894038142FE
:1010200018D95448D0F89C23A0F57A6090F8BC1FDA
:10103000072002F051FA4F48D0F82815D0F89C0349
:101040000B1A504890F8BC2F0721012011F08AFAA2
:101050000620607081E0072015F0C4FC58B900221A
:101060000321104615F0D3FC01221121002015F0B8
:10107000CEFC0720607070E010F0EAFB4049D1F828
:10108000F810401A0A21B0FBF1F13A48D0F8980361
:1010900081420BD901221321002015F0B8FC012256
:1010A0001421002015F0B3FC0820607055E010F00A
:1010B000CFFB3349D1F8F810401A0A21B0FBF1F107
:1010C0002C48D0F89003814209D92A48D0F8A023AF
:1010D00090F8B013012002F0FFF9092060703CE0A5
:1010E000012015F07FFC48B92248D0F8A82390F8D9
:1010F000B413042002F0F0F90A2060702DE00420FF
:1011000015F070FC68B900201B4908631948D0F835
:10111000AC231C4890F8A41F012002F0DDF90B203D
:1011200060701AE0012015F05DFC70B9042015F024
:1011300059FC50B90F48D0F82825124890F8BC1F28
:10114000072002F0C9F9FF20607006E0002020703F
:1011500060700120A07000E000BF00BF6078217BBC
:10116000884206D06078207310F072FB0449C1F801
:10117000F80010BDB82B0020945F0020780C0020F0
:10118000145D0020181C002001460C2904DA0448D4
:1011900050F82100008870474FF0FF30FBE7000057
:1011A000A802002010B504469248D0F87807142809
:1011B00003D914218F48C0F87817607860B9207877
:1011C000012809D160700020A070E0708A49086091
:1011D0008A4908608A49C861607806287ED006DCA2
:1011E00006287CD2DFE800F0F80C1C36588F072860
:1011F00076D0082875D0092874D0FF286FD1E5E093
:101200007C49D1F89405032115F022FC28B17C48D3
:10121000406910B90220607001E008206070DCE0D5
:10122000042015F0DFFBA0B9012015F0DBFB20B195
:101230007448D0F8F803C8280BDA6E48D0F840227A
:10124000A0F57A6090F8B01F042002F045F9032061
:101250006070C2E0042015F0C5FB40B16948D0F8C9
:1012600004146448D0F84002C838814213DD0620D7
:1012700015F0B8FB78B9012015F0B4FB58B95D48FA
:10128000D0F84422A0F57A6090F8A41F012002F063
:1012900023F904206070A0E0042015F0A3FB70BBCC
:1012A000012015F09FFB50BB5249D1F8D805534996
:1012B000096815F0CDFB18B35148C06900BB4E4812
:1012C0000068401C4C4908604C480068A8B1494877
:1012D000D0F8101700F69800484A04E02CE07BE0B4
:1012E00047E05BE06FE0126850F822000844434298
:1012F0000B220121042002F0CBFC0520607001E0EC
:101300000620607069E0042015F06CFB98B93E4837
:1013100090F8E00078B90020394948640846C0696F
:1013200018B90120384981F8E0000021364880F8DA
:10133000E2100620607050E0334890F8E200012887
:1013400003D0314890F8E00090B90A202F49486056
:101350002A480068401C294908602648D0F87807C8
:101360000968884202D90420607001E0072060709B
:1013700033E0042015F036FB78B9062015F032FB77
:1013800058B91F48C06910B101201D49C864012027
:101390001D4981F84001082060701EE010F058FAE5
:1013A0001949D1F88810401A0A21B0FBF1F111480F
:1013B000D0F83802814205D9012015F013FB08B995
:1013C0000920607009E0FF20607006E00020607076
:1013D00020700120A07000E000BF00BF6078217B7A
:1013E000884206D06078207310F032FA0649C1F8BE
:1013F000880010BDB82B0020080000203400002019
:10140000945F0020780C0020145D002010690020FB
:1014100010B50446607860B92078012809D1607061
:101420000020A070002101200AF050FD08B903201F
:1014300060706078012806D002281ED003282FD0C3
:1014400004283DD135E0062015F0CCFAA0B9234898
:1014500090F8B81F48F6A042062002F0CFF82048C6
:10146000D0F80C041F4908601F48D0F82C12491C02
:10147000C0F82C120220607023E01948D0F80C0448
:101480001849096848F2D0421144884203DC06201A
:1014900015F0A8FA18B90120A0700320607010E0C0
:1014A000062015F09FFA18B90120A0700420607082
:1014B00007E0002020700120A0700020607000E094
:1014C00000BF00BF6078217B884206D0607820731F
:1014D00010F0BEF90549C1F8E80010BD181C002045
:1014E000780C002038000020B82B0020145D00206C
:1014F00010B50446444890F8D000012807D142486E
:1015000090F8D10018B901213F4880F8D1106078D7
:1015100003283AD004DC012807D0022865D11EE058
:10152000042848D0FF2860D15BE0E078401CE070E0
:10153000E1783648D0F8A40581420DD30020E07050
:101540000122092115F063FA00220A21104615F044
:101550005EFA0220607001E0FF20607046E010F04B
:1015600077F92949D1F8D810401A0A21B0FBF1F1D6
:101570002648D0F82003814206D9002209211046CE
:1015800015F045FA0320607030E010F061F91E4953
:10159000D1F8D810401A0A21B0FBF1F11B48D0F85D
:1015A0002403814206D901220A21002015F02FFAD6
:1015B000042060701AE010F04BF91349D1F8D810EC
:1015C000401A0A21B0FBF1F11048D0F82003814203
:1015D00006D901220921002015F019FAFF206070B8
:1015E00004E000206070207000E000BF00BF607861
:1015F000217B884206D06078207310F029F90249D7
:10160000C1F8D80010BD0000145D0020B82B0020E8
:1016100010B50446FC4890F8A000012807D1FA480C
:1016200090F8A10018B90121F74880F8A11060785E
:1016300008286ED007DC08286CD2DFE800F06B13B6
:10164000587D84B9CAF00C2872D006DC092870D005
:101650000A286FD00B285DD18DE10D286BD0FF28B3
:10166000F9D1C3E1042015F0BDF900283ED10120D5
:1016700015F0B8F9B8BBE44890F8600298BBE248AE
:1016800090F87D0078BBE149C86F172115F0E0F9AB
:1016900020B1DD4890F86202012827D10021DA4804
:1016A00080F86212D949D1F89405022115F0D0F9D9
:1016B000012819D1D6484069B0B9D448D0F8F822E9
:1016C000A0F57A6090F8B01F042001F005FFCF4824
:1016D000D0F8D425A0F57A6090F8A41F012001F07D
:1016E000FBFE0220607001E00A20607093E104209C
:1016F00015F078F9D8B9E07800280CDDC348D0F8A7
:10170000F823A0F57A6090F8A41F012001F0E4FE10
:101710000BE0E8E07EE1BD48D0F89C25A0F57A60BA
:1017200090F8A41F012001F0D7FE0320607072E141
:101730008DE0E7E002E1ABE0012015F053F908B9D4
:101740000420607067E110F083F8AF49D1F8A81069
:10175000401A0A21B0FBF1F1AC48D0F8B80581423B
:1017600025D9AA48D0F89C15D0F8D405091AA7485D
:10177000D0F8780500F57A7081420CD9A348D0F8EA
:1017800078054042A0F57A72A04890F8BC15012077
:1017900001F034FF09E09D48D0F8D425A0F57A6027
:1017A00090F8A41F012001F097FE0520607032E13F
:1017B000012015F017F958B99448D0F8FC22A0F58B
:1017C0007A6090F8B01F042001F086FE0620607059
:1017D00021E1042015F006F900BB012015F002F903
:1017E000E0B98A49D1F89405082115F031F9B8B16A
:1017F000E078002808DD8548D0F8002490F8081427
:10180000012001F069FE07E08048D0F8DC2590F85F
:10181000BC15012001F060FE0C20607016E030E085
:10182000E078002808DD7948D0F8102490F80814F2
:10183000012001F051FE07E07448D0F8A02590F88F
:10184000BC15012001F048FE07206070E3E0012094
:1018500015F0C8F8A0B9E07840B96C48D0F8A025D8
:1018600090F8E015012001F037FE07E06748D0F856
:10187000102490F8E813012001F02EFE072060707C
:10188000C9E0012015F0AEF808B90D206070C2E083
:101890000FF0DEFF5C49D1F8A810401A0A21B0FB16
:1018A000F1F15A48D0F8B00581421BD95749D1F817
:1018B0009405082115F0CCF890B1E07840B9534870
:1018C000D0F8DC2590F8E815012001F005FE07E0CE
:1018D0004E48D0F8002490F8EC13012001F0FCFDF4
:1018E0000820607097E0012015F07CF848B947485F
:1018F000D0F8D42590F8BC15012001F0EDFD0920A9
:10190000607088E0012015F06DF8B0B9E078401CF7
:10191000E0700A206070E1783C48D0F8A805814268
:101920000BD23A49D1F89405092115F091F810B17C
:101930000120607001E0062060706CE0042015F06A
:1019400051F8B8B9012015F04DF898B92F49D1F8E0
:101950009405022115F07CF8012809D12B48D0F814
:10196000D425A0F57A6090F8A41F012001F0B4FD01
:101970000B2060704FE0042015F034F8A8BB012064
:1019800015F030F888BB0FF063FF1F49D1F8A8109D
:10199000401A0A21B0FBF1F11C48D0F8E40581425D
:1019A00006D81A49D1F89405022115F051F8E0B98A
:1019B000154890F8A001C0B91449D1F89405022146
:1019C00015F046F8012804D10F4981F8B00081F8DC
:1019D000D0000E48D0F8CC20A0F57A6090F8B01F67
:1019E000042001F079FDFF20607014E0042014F061
:1019F000F9FF38B9042014F0F5FF18B90020E070A1
:101A00006070207007E00000145D0020B82B0020FB
:101A1000945F002000BF00BF6078217B884206D021
:101A2000607820730FF014FF0149C1F8A80010BDC1
:101A3000145D002010B50446674890F87000012836
:101A400007D1654890F8710018B90121624880F803
:101A500071106078032837D004DC012807D00228F1
:101A60007DD111E0042842D0FF28F9D158E0607BF5
:101A700048B9594890F8800028B90120564981F8A2
:101A80008000022060709AE0534890F88000D0B93E
:101A90000021514880F8F2105049D1F894050321F3
:101AA00014F0D6FF68B14D49D1F894050B2114F01C
:101AB000CFFF30B14A48C06918B90120464981F8C2
:101AC000F000032060707AE0434890F8F00068B9B5
:101AD000414890F8000148B93F4890F8F2000128C9
:101AE00002D13D4981F800010420607067E03A4866
:101AF00090F8A00098B9384890F8000178B904200F
:101B000014F070FF58B93548D0F8CC20A0F57A60B1
:101B100090F8B01F042001F0DFFCFF2060704EE061
:101B2000042014F05FFFE0BB2D48C06C01281DD0DD
:101B30002B48C06D02281FD02849D1F894050A21EE
:101B400014F086FFC0B12549D1F89405032114F0A3
:101B50007FFF88B12149D1F894050B2100E02DE0E9
:101B600014F076FF40B11E48C06928B91C48406C8B
:101B7000401C1B49486402E0002019494864184889
:101B8000416C491C1548D0F84C02814212DD0020FE
:101B9000134948640E220021022000F01BFB11486B
:101BA00000E00AE0D0F8E803022803D102210D4842
:101BB000C0F8BC1B00206070207000E000BF00BFB8
:101BC0006078217B884205D0607820730FF040FE5A
:101BD0000149886710BD0000145D0020B82B00206B
:101BE000945F0020780C002010B50446607828B976
:101BF0002078012802D160700020A070607807284A
:101C000070D007DC07286ED2DFE800F0E21122482E
:101C1000566F84000A2867D004DC082878D0092889
:101C200061D19EE00B2874D0FF28F9D1CCE00420CC
:101C300014F0D8FE58B96D48D0F80025A0F57A60A8
:101C400090F8B01F042001F047FC02206070C0E053
:101C5000042014F0C7FE58B16448D0F80015D0F83D
:101C6000840301446248D0F80404B0EB510F14D24D
:101C70005E48D0F80425A0F57A6090F8A41F0120F2
:101C800001F02AFC032060705849D1F894050A211C
:101C900014F0DEFE08B9072060709AE0042014F00A
:101CA000A1FE40B9012014F09DFE20B90120514948
:101CB000C865042060708CE00FF0CAFD4E49D1F871
:101CC0000811401A0A21B0FBF1F14848D0F8180574
:101CD000814206D900221021104614F098FE0520FA
:101CE000607076E024E073E051E00FF0B1FD42490E
:101CF000D1F80811401A0A21B0FBF1F00A2806D9E0
:101D000001221021002014F082FE0620607060E0A5
:101D10001FE052E00FF09CFD3749D1F80811401A3E
:101D20000A21B0FBF1F0322801D90720607050E0A1
:101D3000042014F057FE58B92C48D0F80825A0F517
:101D40007A6090F8A41F012001F0C6FB08206070A3
:101D50003FE001220321002014F059FE09206070A9
:101D600037E00FF075FD2449D1F80811401A0A2117
:101D7000B0FBF1F11D48D0F80C05814206D90122D3
:101D80001221002014F043FE0A20607021E013218C
:101D900000200AF09BF878B9012014F023FE58B90E
:101DA0001248D0F81425A0F57A6090F8B01F0420EE
:101DB00001F092FB0B2060700BE0042014F012FE87
:101DC00008B9FF20607004E000206070207000E01F
:101DD00000BF00BF6078217B884206D06078207306
:101DE0000FF036FD0449C1F8080110BDB82B0020E2
:101DF000780C0020945F0020145D002070B5C44969
:101E0000D1F80C06092114F023FE28B100220A2182
:101E1000104614F0FCFD04E001220A21002014F019
:101E2000F6FDBB49C86F022114F012FE20B3032156
:101E300001200AF04BF808B9012000E00020054617
:101E40000A222946142020F0A7FAD0B10621B14871
:101E50000CF03EFE002403E0E0B209F03BFC641C01
:101E60000C2CF9DB03220021022000F0B3F9012140
:101E7000A948C0F8EC1304E003220021022000F07E
:101E800089F9A349C86F002114F0E2FD48B104218B
:101E900001200AF01BF820B907220021022000F0DF
:101EA00099F99B49C86F012114F0D2FD0521012049
:101EB0000AF00CF8012800D100E000200546642259
:101EC0002946112020F068FA28B100220B21104683
:101ED00014F09DFD04E001220B21002014F097FD79
:101EE0008B49D1F80C06072114F0B2FDA8B10521E9
:101EF000012009F0EBFF012800D100E00020054699
:101F000041F288322946042020F046FA68B10C22BA
:101F10000021022000F05EF907E00C2200210220DF
:101F200000F038F900207D4908617949D1F80C06A4
:101F3000062114F08DFD88B17748D0F8E803022817
:101F40000CD11521002009F0C1FF38B9002217215A
:101F5000104614F05CFD02207149C8617048C069E8
:101F6000012807D16C48D0F8BC0B18B901216A4888
:101F7000C0F8BC1B6649D1F894050A2114F068FD2D
:101F800058B16748C06D012807D11621002009F01B
:101F90009DFF10B902206249C8651721002014F086
:101FA00011FD08B9012000E000200546C82229469D
:101FB000052020F0F1F920B101221721002014F0B2
:101FC00026FD5348D0F8FC06B0F57A6F0ADB50497D
:101FD000C86F152114F03CFD20B10422012102201C
:101FE00000F0F8F84A49C86F1B2114F031FDA8B180
:101FF0000621012009F06AFF08B9012000E0002055
:10200000054641F288322946022020F0C5F940B148
:1020100007220121022000F0DDF802E000203F4904
:1020200088601321002009F051FF012806D11221F8
:10203000002014F0C7FC012800D100E00020054674
:1020400040F6B8322946062020F0A6F948B1012111
:102050003148C0F8BC1BC0F8B81B0822022000F0B1
:10206000B9F81421002009F031FF012806D112210E
:10207000002014F0A7FC08B9012000E0002005466C
:1020800040F6B8322946082020F086F948B10121EF
:102090002148C0F8BC1BC0F8B81B0922022000F080
:1020A00099F81B49C86F1D2114F0D2FC58B31821B0
:1020B000002009F00BFF012805D01921002009F0AC
:1020C00005FF012806D1174890F81101032801DA0D
:1020D000012000E00020054640F6B83229460320E2
:1020E00020F05AF990B10A220121022000F072F882
:1020F0000C4890F8500148B901210748C0F8BC1BB2
:10210000C0F8B81B02E000200449C86070BD0000A0
:10211000B82B00203C180020780C0020106900200B
:10212000945F0020145D002013200FE00949096826
:1021300051F8201049B10146C21700EB927292107B
:10214000521C044B1B681A6502E0401E0028EDDAA1
:1021500000BF7047340600200C4A1168B1F8D4283B
:10216000012A11D10022A1F8D428002006E0002283
:10217000074B1B6843F82020421CD0B21428F6DB22
:102180000022034B1B681A65704700003C060020C4
:102190003406002030B5012818DB052816DC032999
:1021A00014DC1F2A12DC0423C3EB80030B44084C0D
:1021B000246854F8233001249440A3430424C4EB3E
:1021C00080040C44024D2D6845F8243030BD0000D9
:1021D0003406002030B5012818DB052816DC032959
:1021E00014DC1F2A12DC0423C3EB80030B44084CCD
:1021F000246854F823300124944023430424C4EB7E
:1022000080040C44024D2D6845F8243030BD000098
:102210003406002030B587B041F270704FF47A7107
:10222000009143F2B463744ACDE90110A2F69441DF
:10223000A1F5437018F0D6FD4FF4FA526E49002014
:1022400007F0C2FC01E007F0A9FC07F099FC0028A8
:10225000F9D19FED6A0A05200BF098FF9FED670A00
:1022600002200BF093FF002405E0012120460AF034
:102270001BFF601CC4B21A2CF7DB00240EE0002008
:10228000029003900490059000900346224601219D
:102290000190204609F032F8601CC4B20C2CEEDB31
:1022A00000243AE0032104EB8402554800EB82004D
:1022B0000182002104EB8402514800EB8200C181BD
:1022C00004EB84014E4800EB81004481002104EBC3
:1022D00084024B4800EB82008181012104EB8402DF
:1022E000474820F82210002104EB840200EB820012
:1022F000C18004EB8402424800EB8200018104EBC0
:1023000084023F4800EB8200418004EB84023C4899
:1023100000EB82008180601CC4B20C2CC2DB002167
:102320003548A0F8A01AA0F8DC1A354901F0D3FA14
:10233000002405E00021204609F04CF8601CC4B2DE
:102340000C2CF7DB00243AE0002204EB84012A483D
:1023500000EBC10004EB8405C169274800EBC50010
:10236000806903AB07C304EB8401234800EBC10081
:102370000692406904EB84021F4901EBC20109691E
:1023800004EB84031C4A02EBC302D26804EB84050D
:10239000CDE900210290184800EBC50004EB84054C
:1023A0008368154800EBC50004EB840542681248B9
:1023B00050F83510204609F0B9F8601CC4B20C2C56
:1023C000C2DB01210F48C0F8EC1300210B2006F0FE
:1023D0003DFE00210A2006F039FE4FF4FA700A494A
:1023E000C8600A4940F6E31003F09CF80849094820
:1023F00005F008FF07B030BD181C0020CDCCAC4064
:1024000040260020780C002028650020E00F0020E6
:102410009C1800202C2A002070B505460C46012C83
:1024200000DD70BD2846FEF7AFFEA0420ED1284663
:1024300001F022FA0121284601F00AFA0720C5EB33
:10244000C501034A02EB011181F8640000BFE8E70F
:1024500018700020C0EBC001074A02EB0111B1F86F
:10246000601039B90021C0EBC002034B03EB02122C
:1024700082F8641070470000187000207047000058
:10248000C0EBC001074A02EB0111B1F8601039B985
:102490000021C0EBC002034B03EB021282F8641070
:1024A00070470000187000207047000010B5002031
:1024B00060490870B7E05F480078C0EBC0005E4933
:1024C00001EB0010B0F8600048B15C485949097848
:1024D000405C20B901205949564A1278885457481F
:1024E00054490978405C012804D0022868D00328A8
:1024F000FFD192E04F48007803F0D2FE4D490978B1
:10250000C1EBC1014C4A02EB0111C8654948007892
:10251000C0EBC000114601EB0010C06D45490978C1
:10252000C1EBC10102EB0111096988420ED3414898
:102530000078C0EBC000114601EB001000693D4976
:102540000978C1EBC10102EB0111C8653948007877
:10255000C0EBC000384A02EB0010C16D354800786E
:102560000BF07EFD334800780BF01CFD31490978F3
:10257000C1EBC101304A02EB011191F96C102D4AF7
:102580001278C2EBC2022C4B03EB0212526D00FB1D
:10259000012028490978C1EBC1011A4602EB01115B
:1025A0008865244800780BF025FD40B9234821496F
:1025B0000978405C401C21491E4A127888542CE05E
:1025C0001C4800780BF0EEFC1A490978C1EBC101F8
:1025D000194A02EB011191F96C10164A1278C2EBFC
:1025E000C202154B03EB0212526D00FB0120114990
:1025F0000978C1EBC1011A4602EB01118865002080
:102600000C490978C1EBC10102EB0111A1F860008E
:102610000A49084A1278885400BF00BF054800786C
:10262000401C04490870034800781028FFF643AFA7
:1026300010BD0000580600201870002018770020F8
:102640007FB504460D46C4EBC400874901EB00107A
:10265000B0F8600000287CD1C4EBC40001EB00108E
:10266000806DC4EBC401804A02EB01114865C4EBE4
:10267000C400114601EB00104068C4EBC40102EB3A
:102680000111C865C4EBC400114601EB0010C06D18
:10269000C4EBC40102EB0111096988420AD3C4EBFF
:1026A000C400114601EB00100069C4EBC40102EB49
:1026B0000111C865C4EBC4006B4A02EB0010C16D88
:1026C00020460BF0CDFC002D64DD0121204601F0F9
:1026D0003FF8C4EBC400644901EB0010C06DC4EBCB
:1026E000C401614A02EB0111096988420AD3C4EBB3
:1026F000C400114601EB00100069C4EBC40102EBF9
:102700000111C865C4EBC400574A02EB00104168D0
:1027100020460BF0A5FC294620460BF059FD012070
:10272000C4EBC401504A02EB0111A1F86000C4EBF4
:10273000C400114601EB00104069C4EBC40102EB78
:1027400001118968C4EBC402474B03EB0212126DFE
:1027500000E086E0C4EBC403434E06EB0313DB69E1
:10276000CDE90032CDE90210C4EBC40006EB001045
:102770000369C4EBC40006EB00104268C4EBC4005C
:1027800006EB001090F82010204604F0E3FB002038
:1027900004B070BD002D62DA4FF0FF31204600F02A
:1027A000D7FFC4EBC400304901EB0010C06DC4EB8F
:1027B000C4012D4A02EB0111096988420AD3C4EB16
:1027C000C400114601EB00100069C4EBC40102EB28
:1027D0000111C865C4EBC400234A02EB0010416834
:1027E00020460BF03DFC694220460BF0F1FC012035
:1027F000C4EBC4011C4A02EB0111A1F86000C4EB58
:10280000C400114601EB00104069C4EBC40102EBA7
:1028100001118A68C4EBC401134B03EB0111096D6C
:10282000C4EBC403104E06EB0313DB69CDE90031A2
:10283000CDE90220C4EBC40006EB00100369C4EB31
:10284000C40006EB00104268C4EBC40006EB0010A5
:1028500090F82010204604F07DFB002098E700202F
:1028600096E74FF0FF3093E71870002010B504464C
:10287000C4EBC400FE4901EB001090F86400052889
:1028800013D1C4EBC40001EB0010B0F8620060B9D2
:102890000120C4EBC401F64A02EB0111A1F8620069
:1028A0000EF0D0FFF34941F82400C4EBC400F04916
:1028B00001EB001090F8640005282AD1C4EBC40095
:1028C00001EB0010406B20B30EF0BCFFE94951F85A
:1028D0002410401AC4EBC401E54A02EB0111496B14
:1028E000884216D90221204600F0B2FF204600F0AF
:1028F000C3FF0020C4EBC401DD4A02EB0111A1F8C3
:1029000062000720C4EBC40102EB011181F86400EE
:1029100010BDC4EBC400D64901EB0010B0F8620052
:102920001C287AD2DFE800F0790E83B0C7FDFCFBEB
:10293000FAF9F8F7F6F5F4F3F2F1F0EFEEEDECEB6F
:10294000EAE9E8E7C4EBC400C94901EB001090F8DC
:10295000380000F00100C8B3C4EBC40001EB001064
:1029600090F83E0088B1C4EBC401C14A02EB0111EA
:1029700091F8440000F004FFC4EBC401BC4A02EB30
:10298000011191F84210884221D0C4EBC400B8492B
:1029900001EB0010406AC4EBC401B54A02EB01111F
:1029A00008614FF010412046FFF74AFEC4EBC40017
:1029B000AF4901EB0010B0F86200401CC4EBC40149
:1029C000AB4A02EB0111A1F862002FE0FFE7C4EB74
:1029D000C400A74901EB001090F8380000F008008F
:1029E00040B11020C4EBC401A14A02EB0111A1F8CF
:1029F00062001BE0C4EBC4009D4901EB001090F89D
:102A0000380000F0100048B11620C4EBC401984A09
:102A100002EB0111A1F8620008E009E20420C4EB16
:102A2000C401934A02EB0111A1F8620000E2C4EB79
:102A3000C4008F4901EB001090F83E0018B3C4EBBE
:102A4000C4018B4A02EB011191F8440000F098FE9A
:102A5000C4EBC401864A02EB011191F8421088428E
:102A600011D1204600F008FFC4EBC400804901EBFF
:102A70000010B0F86200401CC4EBC4017C4A02EBB9
:102A80000111A1F86200D3E1C4EBC400784901EB65
:102A90000010B0F8600068B9C4EBC40001EB00108E
:102AA000B0F86200401CC4EBC401714A02EB011192
:102AB000A1F86200BCE1C4EBC4006D4901EB001059
:102AC00090F8380000F0020060B3C4EBC40001EBE2
:102AD000001090F83D0030B3C4EBC401644A02EB2F
:102AE000011191F8430000F04BFEC4EBC401604AB1
:102AF00002EB011118E0FDE3E4E3B7E38CE36AE3E2
:102B00001CE30AE3E4E2B7E287E265E217E2F8E1F8
:102B1000E0E1A5E18DE160E115E1FDE0D0E075E0E7
:102B20005DE02FE025E003E091F84110884220D0DD
:102B3000C4EBC4004E4901EB0010406AC4EBC40171
:102B40004B4A02EB011108614FF0E0412046FFF7CC
:102B500077FDC4EBC400464901EB0010B0F86200F9
:102B6000401CC4EBC401424A02EB0111A1F862000F
:102B700007E00720C4EBC4013D4A02EB0111A1F8B4
:102B80006200D7E3C4EBC400394901EB001090F8B0
:102B90003D0018B3C4EBC401354A02EB011191F8B2
:102BA000430000F0EDFDC4EBC401314A02EB01111A
:102BB00091F84110884211D1204600F05DFEC4EB2F
:102BC000C4002B4901EB0010B0F86200401CC4EBBC
:102BD000C401274A02EB0111A1F86200AAE3C4EB89
:102BE000C400234901EB0010B0F8600068B9C4EBE1
:102BF000C40001EB0010B0F86200401CC4EBC4013B
:102C00001B4A02EB0111A1F8620093E3C4EBC4007C
:102C1000174901EB001090F8380000F0010030B3C4
:102C2000C4EBC40001EB001090F8380000F0020083
:102C3000E8B9C4EBC40001EB0010406AC4EBC40166
:102C40000B4A02EB011108614FF0E0412046FFF70B
:102C5000F7FCC4EBC400064901EB0010B0F86200B9
:102C6000401CC4EBC401024A02EB011104E006E07F
:102C70001870002028770020A1F862001FE0C4EB44
:102C8000C400FB4901EB0010406AC4EBC401F84AE0
:102C900002EB011108614FF010412046FFF7D0FC14
:102CA000C4EBC400F24901EB0010B0F86200401C14
:102CB000C4EBC401EE4A02EB0111A1F8620039E352
:102CC000C4EBC400EA4901EB001090F8300010B3E7
:102CD000C4EBC401E64A02EB0111488E00F050FD3E
:102CE000C4EBC401E24A02EB011191F831108842B1
:102CF00011D1204600F0C0FDC4EBC400DC4901EB5B
:102D00000010B0F86200401CC4EBC401D84A02EBCA
:102D10000111A1F862000DE3C4EBC400D44901EB3A
:102D20000010B0F8600068B9C4EBC40001EB0010FB
:102D3000B0F86200401CC4EBC401CD4A02EB0111A3
:102D4000A1F86200F6E2C4EBC400C94901EB00102F
:102D500090F8300080B3C4EBC401C54A02EB011106
:102D6000488E00F00DFDC4EBC401C14A02EB011115
:102D700091F83110884220D1C4EBC400114601EB18
:102D80000010806AC4EBC40102EB011108614FF02E
:102D9000E0412046FFF754FCC4EBC400B44901EB0A
:102DA0000010B0F86200401CC4EBC401B04A02EB52
:102DB0000111A1F862000FE0FFE7C4EBC400AC49C9
:102DC00001EB0010B0F86200401CC4EBC401A84A3B
:102DD00002EB0111A1F86200ACE2C4EBC400A4490B
:102DE00001EB001090F8300080B1C4EBC401A04AA0
:102DF00002EB0111488E00F0C3FCC4EBC4019C4AF5
:102E000002EB011191F83110884211D0204600F0F8
:102E100033FDC4EBC400964901EB0010B0F862002A
:102E2000401CC4EBC401924A02EB0111A1F86200FC
:102E300080E2C4EBC4008E4901EB0010B0F86000E2
:102E400068B9C4EBC40001EB0010B0F86200401C8C
:102E5000C4EBC401864A02EB0111A1F8620069E2E9
:102E6000C4EBC400824901EB0010C06A10B3C4EB8C
:102E7000C40001EB00100069C4EBC4017C4A02EB02
:102E800001110861C4EBC40002EB0010C16A2046C6
:102E9000FFF7D6FBC4EBC400754901EB0010B0F896
:102EA0006200401CC4EBC401714A02EB0111A1F89D
:102EB00062000EE0C4EBC4006D4901EB0010B0F8F5
:102EC0006200401CC4EBC401694A02EB0111A1F885
:102ED00062002FE2C4EBC400654901EB0010B0F8BA
:102EE000600068B9C4EBC40001EB0010B0F86200E8
:102EF000401CC4EBC4015E4A02EB0111A1F8620060
:102F000018E20020C4EBC401594A02EB01118865A4
:102F1000C4EBC40102EB01110865C4EBC40102EB70
:102F2000011181F86400204600F064FC0020C4EB2D
:102F3000C4014F4A02EB0111A1F86200FAE1C4EBAF
:102F4000C4004B4901EB001090F8300080B1C4EB95
:102F5000C401474A02EB0111488E00F011FCC4EB9A
:102F6000C401434A02EB011191F83110884219D093
:102F7000C4EBC4003E4901EB0010406AC4EBC4013D
:102F80003B4A02EB011108614FF0E0412046FFF798
:102F900057FB1120C4EBC401354A02EB0111A1F823
:102FA000620018E0C4EBC400314901EB0010406A34
:102FB000C4EBC4012E4A02EB011108614FF0E0415D
:102FC0002046FFF73DFB1220C4EBC401284A02EB68
:102FD0000111A1F86200ADE1C4EBC400244901EB8A
:102FE000001090F83000B8B1C4EBC401204A02EBE5
:102FF0000111488E00F0C4FBC4EBC4011C4A02EB73
:10300000011191F83110884206D11220C4EBC4019D
:1030100002EB0111A1F862008CE1C4EBC400144979
:1030200001EB001090F8300080B1C4EBC401104AED
:1030300002EB0111488E00F0A3FBC4EBC4010C4A63
:1030400002EB011191F8311088420FD0204600F0B8
:1030500013FC0EF0F7FB074941F824001320C4EBE2
:10306000C401034A02EB0111A1F8620062E1000011
:103070001870002068770020C4EBC400AF4901EB52
:103080000010B0F8600010BB0EF0DCFBAC4951F84A
:103090002410401A40F63401884218D3C4EBC4000F
:1030A000A64901EB0010806AC4EBC401A34A02EBFD
:1030B000011108614FF010412046FFF7C1FA1420BA
:1030C000C4EBC4019D4A02EB0111A1F8620031E199
:1030D000C4EBC400994901EB001090F83000D8B15E
:1030E000C4EBC401954A02EB0111488E00F048FB85
:1030F000C4EBC401914A02EB011191F831108842EE
:103100000AD1204600F0B8FB1520C4EBC4018B4A5D
:1031100002EB0111A1F862000CE1C4EBC400874985
:1031200001EB0010B0F8600038B90F20C4EBC40107
:10313000824A02EB0111A1F86200FBE0C4EBC4007B
:103140007E4901EB001090F8300080B1C4EBC4015F
:103150007A4A02EB0111488E00F012FBC4EBC40165
:10316000764A02EB011191F83110884219D0C4EB74
:10317000C400724901EB0010406AC4EBC4016F4AFD
:1031800002EB011108614FF010412046FFF758FA99
:103190001720C4EBC401694A02EB0111A1F86200D7
:1031A00018E0C4EBC400654901EB0010406AC4EBB1
:1031B000C401624A02EB011108614FF01041204640
:1031C000FFF73EFA1820C4EBC4015C4A02EB011180
:1031D000A1F86200AEE0C4EBC400584901EB001056
:1031E00090F83000B8B1C4EBC401544A02EB0111AD
:1031F000488E00F0C5FAC4EBC401504A02EB01113D
:1032000091F83110884206D11820C4EBC40102EBBA
:103210000111A1F862008DE0C4EBC400474901EB45
:10322000001090F8300080B1C4EBC401434A02EBB7
:103230000111488E00F0A4FAC4EBC4013F4A02EB2E
:10324000011191F8311088420FD0204600F014FB94
:103250000EF0F8FA3A4941F824001920C4EBC401F1
:10326000364A02EB0111A1F8620063E0C4EBC4002E
:10327000324901EB0010B0F8600010BB0EF0E2FA2A
:103280002F4951F82410401A40F63401884218D3CF
:10329000C4EBC400294901EB0010806AC4EBC401EF
:1032A000264A02EB011108614FF0E0412046FFF78A
:1032B000C7F91A20C4EBC401204A02EB0111A1F89E
:1032C000620037E0C4EBC4001C4901EB001090F829
:1032D0003000E8B1C4EBC401184A02EB0111488E7A
:1032E00000F04EFAC4EBC401144A02EB011191F84C
:1032F000311000E00DE088420AD1204600F0BCFA0F
:103300001B20C4EBC4010D4A02EB0111A1F86200BD
:1033100010E0C4EBC400094901EB0010B0F86000F4
:1033200038B90F20C4EBC401044A02EB0111A1F823
:10333000620000BF00BF00BFFFF7EABA18700020AC
:103340006877002010B50446C4EBC400314901EB96
:10335000001090F86C00012828D1C4EBC40001EBE8
:10336000001090F83D0008B3C4EBC401294A02EBF9
:10337000011191F8430000F003FAC4EBC401254A9F
:1033800002EB011191F8411088420FD14FF4807186
:10339000204600F05DFA204600F06EFA0720C4EBEC
:1033A000C4011C4A02EB011181F86400C4EBC400A3
:1033B000184901EB001090F96C00B0F1FF3F28D1E3
:1033C000C4EBC40001EB001090F83E0008B3C4EB5E
:1033D000C401104A02EB011191F8440000F0D0F949
:1033E000C4EBC4010B4A02EB011191F84210884270
:1033F0000FD14FF48051204600F02AFA204600F009
:103400003BFA0720C4EBC401024A02EB011181F828
:10341000640010BD1870002010B50446C4EBC40051
:103420002C4901EB001090F83F0020B3C4EBC4001E
:1034300001EB001090F86C0001281CD1C4EBC40013
:1034400001EB0010806DC4EBC401224A02EB0111B4
:10345000896C88420FDD4FF40071204600F0F8F9C6
:10346000204600F009FA0720C4EBC401194A02EB18
:10347000011181F86400C4EBC400164901EB00108F
:1034800090F8400028B3C4EBC40001EB001090F9A1
:103490006C00B0F1FF3F1CD1C4EBC40001EB001085
:1034A000806DC4EBC4010B4A02EB0111C96C884268
:1034B0000FDA4FF40051204600F0CAF9204600F020
:1034C000DBF90720C4EBC401024A02EB011181F8C9
:1034D000640010BD18700020F0B52DED028B87B090
:1034E00004460D461646204607F0DAFE00EE105A56
:1034F000B8EE400ADFED3D0A80EE201AB0EE418AB8
:103500003B48806F404300EE100AB8EE400A20EEC0
:10351000080ADFED360A80EE201AB0EE418A0C2C44
:1035200060DA002204EB8401324800EBC100C0697C
:1035300004EB84072F4901EBC7018969CDE9040237
:103540000692039104EB84012A4800EBC10004EBCE
:1035500084024169274850F8320004EB8403254A6D
:1035600002EBC302526804EB8407CDE9002002910C
:10357000204800EBC70090ED020AB8EEC00A20EE2A
:10358000080ABCEEC00A10EE103A04EB8407194892
:1035900000EBC70004EB84074268164850F8371068
:1035A000204607F0C3FF144850F8240000EE100A2C
:1035B000F8EEC00A00EE106AB8EEC00A60EE800AAB
:1035C0000D48C83050F8240000EE100AB8EEC00ACA
:1035D00080EE801ABDEEC10A10EE107A3946204600
:1035E00007F0A8FD07B0BDEC028BF0BD0000C8429B
:1035F000B82B0020181C0020E8230020F0B52DED8A
:10360000028B87B004460E46154600EE106AB8EEEF
:10361000400ADFED490A80EE201AB0EE418A062CFE
:103620000ED04648806F404300EE100AB8EE400AC4
:1036300020EE080ADFED400A80EE201AB0EE418A43
:10364000204607F02DFE3E4850F8240000EE100AF8
:10365000F8EEC00A00EE105AB8EEC00A60EE800A1A
:103660003748C83050F8240000EE100AB8EEC00AFF
:1036700080EE801ABDEEC10A324880ED000A002DAE
:1036800005DD006850B901202E49086006E02D488C
:10369000006818B94FF0FF302A4908600C2C46DA50
:1036A000002204EB8401284800EBC100C06904EB50
:1036B0008407254901EBC7018969CDE90402069217
:1036C000039104EB8401204800EBC10004EB840269
:1036D00041691D4850F8320004EB84031A4A02EB9A
:1036E000C302526804EB8407CDE90020029116481A
:1036F00000EBC70090ED020AB8EEC00A20EE080AFF
:10370000BCEEC00A10EE103A04EB84070E4800EB42
:10371000C70004EB840742680B4850F83710204676
:1037200007F004FF07480168204607F03BFD07B09B
:10373000BDEC028BF0BD00000000C842B82B002099
:10374000E82300204C000020181C002070470000D7
:1037500070B505460C46C5EBC500084901EB0010E5
:1037600080F86C40002C04DD0121284604F0F6FEB0
:1037700003E00021284604F0F1FE70BD187000201F
:1037800010B50446802C04D2E0B208F02FFBC0B282
:1037900010BD802C08D3902C06D2A4F18001C8B2B1
:1037A000FDF7F2FCC0B2F3E7902C08D3A02C06D2B0
:1037B000A4F19001C8B208F0D3FDC0B2E8E7C02C74
:1037C00009D3D02C07D2A4F1C001C8B2002106F061
:1037D000BBF8C0B2DCE7D02C09D3E02C07D2A4F1AF
:1037E000D001C8B2012106F0AFF8C0B2D0E7002086
:1037F000CEE70000C0EBC001104A02EB01110968DE
:10380000C0EBC0020D4B03EB02125160C0EBC001D4
:103810001A4602EB0111C968C0EBC00203EB0212A9
:103820001161C0EBC0011A4602EB01118969C0EBBE
:10383000C00203EB0212D161704700001870002033
:103840000146142901D2142070470846FCE7000005
:1038500010B510280CDAC0EBC002064B03EB0212C5
:10386000926E0A43C0EBC003024C04EB03139A664A
:1038700010BD00001870002010B5044620460AF064
:10388000E1FC10BDC0EBC001074A02EB0111B1F829
:10389000601039B90021C0EBC002034B03EB0212E8
:1038A00082F864107047000018700020C0EBC0015F
:1038B000074A02EB0111B1F8601039B90021C0EBE1
:1038C000C002034B03EB021282F864107047000041
:1038D0001870002070472DE9F04186B006460D466D
:1038E000002401E104EB840035F8200030B1012808
:1038F00033D0022860D003282ED1A0E0002002900F
:10390000039004900590009004EB840105EB810185
:1039100001900B7B04EB840105EB81018A7AE0B214
:10392000012107F0EBFC04EB840206EBC202E0B2DB
:10393000116A13F07FF8074604EB840206EBC2021B
:10394000E0B2516A13F076F88046E0B200234246B6
:103950001946009707F0C0FDB4E0002002900390E4
:1039600004900590009004EB840105EB8101019027
:103970000B7B04EB840105EB81018A7AE0B2012123
:1039800007F0BCFC04EB840206EBC202E0B2116A51
:1039900013F050F8074604EB840206EBC202E0B2D3
:1039A000516A13F047F88046E0B2012342461946B7
:1039B000009707F091FD85E004EB840005EB8000A3
:1039C000007A04EB840105EB81018979012304EB82
:1039D000840205EB82021279CDE90223CDE90410BD
:1039E00004EB840005EB8000807804EB840105EB98
:1039F0008101CDE900300B7B04EB840105EB8101F3
:103A00008A7AE0B2012107F079FC04EB840206EB2C
:103A1000C202E0B2116A13F00DF8074604EB84020B
:103A200006EBC202E0B2516A13F004F88046E0B23D
:103A3000002342461946009707F04EFD42E004EB92
:103A4000840005EB8000017A04EB840005EB800024
:103A50008079012304EB840205EB82021279CDE91F
:103A60000223CDE9040104EB840005EB800080789B
:103A700004EB840105EB8101CDE900300B7B04EB05
:103A8000840105EB81018A7AE0B2012107F036FC5E
:103A900004EB840206EBC202E0B2116A12F0CAFF24
:103AA000074604EB840206EBC202E0B2516A12F050
:103AB000C1FF8046E0B2012342461946009707F055
:103AC0000BFD00BF00BF04EB840205EB8202917B7B
:103AD000E0B207F07FFC04EB840205EB8202117C6C
:103AE000E0B207F0F9FB641C0C2CFFF6FBAE06B04D
:103AF000BDE8F0812DE9F041C4B004460E461546FC
:103B0000984600274FF4887220496846FCF7BFFEAC
:103B10008DF803408DF813408DF823408DF8334025
:103B20008DF843408DF853408DF863408DF8734015
:103B30008DF883408DF893408DF8A3408DF8B34005
:103B40008DF8C3408DF8D3408DF8E3408DF8F340F5
:103B50008DF803414FF4887269462846FCF752FEFF
:103B600000BF0EE0A879032802D0A879042801D16B
:103B700001206870284610358680701C86B2781C3B
:103B8000C7B2112FEED344B0BDE8F0811C36060851
:103B900010B5002430E0204607F02CFA072829D180
:103BA000204607F007FAB0F5805F05D0204607F001
:103BB00001FAB0F5005F08D1204607F071FB601CE8
:103BC000C2B200210320FEF705FB204607F0F2F900
:103BD000B0F5807F05D0204607F0ECF9B0F5007F06
:103BE00008D1204607F05CFB601CC2B20121032013
:103BF000FEF7F0FA601CC4B20C2CCCDB00243CE0D5
:103C00007CB1012C0DD0022C0BD0032C09D0042C3C
:103C100007D0052C05D0072C03D0062C01D0082C8A
:103C200015D12046FDF7B0FA012809D1204607F04A
:103C300051FD601CC2B200210420FEF7CBFA1AE04D
:103C4000601CC2B200210420FEF7A4FA13E0204653
:103C5000FDF79AFA48B9204607F03CFD601CC2B255
:103C600000210420FEF7B6FA05E0601CC2B2002174
:103C70000420FEF78FFA601CC4B20C2CC0DB07F0E6
:103C800023FE0249C1F8F80410BD0000780C0020A2
:103C90002DE9F0412DED028B88B004460E46154605
:103CA0001F4600EE105AB8EE400ADFED4B0A80EED8
:103CB000201AB0EE418A4948806F404300EE100A56
:103CC000B8EE400A20EE080ADFED430A80EE201A23
:103CD000B0EE418A0B2D03D1B7EE000AB0EE408A58
:103CE000204607F0DDFA0C2C42DA002204EB8401B6
:103CF0003B4800EBC100C06904EB840C384901EB80
:103D0000CC018969CDE904020692039104EB840198
:103D1000334800EBC100406904EB8402304901EBF9
:103D2000C201096904EB84032D4A02EBC302D26885
:103D300004EB840CCDE900210290294800EBCC0073
:103D400090ED020AB8EEC00A20EE080ABCEEC00AE6
:103D500010EE103A04EB840C214800EBCC0004EB8D
:103D6000840C42681E4850F83C10204607F0DEFBE9
:103D700036B1012E0ED0022E16D0032E25D11DE015
:103D80003946204612F056FE80464146204607F04E
:103D9000D1F91AE03946204612F04CFE80464146E1
:103DA000204607F0FFF910E03946204612F042FEA7
:103DB00080464146204607F033FA06E0204607F0E9
:103DC0006FFA204607F026F900BF00BF08B0BDEC2F
:103DD000028BBDE8F08100000000C842B82B002033
:103DE000181C002010B5002406E0E0B207F0F2F83D
:103DF0000A4941F82400641C0C2CF6DB00240AE07C
:103E0000064A52F82410E0B20AF0A4FA0146044827
:103E100040F82410641C0C2CF2DB10BD080E0020AE
:103E20006C10002010B504462B48D0F83002322820
:103E300003D901212848C0F83012607828B92078C9
:103E4000012802D160700020A0706078012804D0A1
:103E5000022817D0FF2831D128E0FF206070E078D9
:103E6000401CE070E1781C48D0F83002814208D153
:103E70000020E07000220921104612F0C8FD022047
:103E800060701BE00DF0E4FC1449D1F84811401AB1
:103E90000A21B0FBF1F0B0F57A7F06D901220921A1
:103EA000002012F0B4FDFF20607007E00C48806A2B
:103EB00018B9002060702070A07000BF00BF60784B
:103EC000217B884206D0607820730DF0C1FC034945
:103ED000C1F8480110BD0000B82B0020145D00207F
:103EE0002865002010B504462C4890F88001012870
:103EF00007D12A4890F8810118B90121274880F894
:103F000081116078012804D002281FD0FF2837D102
:103F100032E0E078401CE070E1782148D0F8C0053C
:103F2000814210D30020E0701D49D1F80C060B210E
:103F300012F08EFD20B100220C21104612F067FD18
:103F40000220607001E0FF2060701AE00DF080FC3C
:103F50001249D1F88811401A0A21B0FBF1F110483A
:103F6000D0F8C405814206D901220C21002012F0AC
:103F70004EFDFF20607004E000206070207000E0C3
:103F800000BF00BF6078217B884206D06078207334
:103F90000DF05EFC0149C1F8880110BD145D0020E0
:103FA000B82B002010B504462C4890F86001012879
:103FB00007D12A4890F8610118B90121274880F8F3
:103FC00061116078012804D002281FD0FF2837D162
:103FD00032E0E078401CE070E1782148D0F8240617
:103FE000814210D30020E0701D49D1F80C060B214E
:103FF00012F02EFD20B100221921104612F007FD0B
:104000000220607001E0FF2060701AE00DF020FCDB
:104010001249D1F86811401A0A21B0FBF1F1104899
:10402000D0F82C06814206D901221921002012F075
:10403000EEFCFF20607004E000206070207000E063
:1040400000BF00BF6078217B884206D06078207373
:104050000DF0FEFB0149C1F8680110BD145D0020A0
:10406000B82B002010B50446444890F87001012890
:1040700007D1424890F8710118B901213F4880F8F2
:104080007111607803283AD004DC012807D0022897
:1040900065D11EE0042848D0FF2860D15BE0E078BD
:1040A000401CE070E1783648D0F81C0681420DD300
:1040B0000020E0700122082112F0A9FC0022072153
:1040C000104612F0A4FC0220607001E0FF20607036
:1040D00046E00DF0BDFB2949D1F87811401A0A21BC
:1040E000B0FBF1F12648D0F82003814206D9002226
:1040F0000821104612F08BFC0320607030E00DF0B8
:10410000A7FB1E49D1F87811401A0A21B0FBF1F142
:104110001B48D0F82403814206D901220721002040
:1041200012F075FC042060701AE00DF091FB134949
:10413000D1F87811401A0A21B0FBF1F11048D0F8FB
:104140002003814206D901220821002012F05FFCE1
:10415000FF20607004E000206070207000E000BF6D
:1041600000BF6078217B884206D0607820730DF014
:104170006FFB0249C1F8780110BD0000145D0020FA
:10418000B82B002010B504460021FE48C0F84C169C
:10419000FD4890F85001012807D1FB4890F85101E3
:1041A00018B90121F84880F85111607808287CD0AE
:1041B00007DC08287AD2DFE800F079135E8B92C71B
:1041C000F2F10C2873D006DC092871D00A2870D0CF
:1041D0000B286BD1C3E10D286CD0FF28F9D104E284
:1041E000052012F0FFFB002844D1E74890F82D018C
:1041F00000283FD112F0F6FB00283BD1E149D1F86D
:104200000C06022112F024FC012831D1DF4840695C
:1042100070BBDC48D0F86821A0F57A6090F8B41F34
:104220000520FFF759F9D748D0F84C26A0F57A6059
:1042300090F8A81F0220FFF74FF9D249C86F11214B
:1042400012F006FC88B1CF49C86F142112F000FCAF
:1042500058B9CC48D0F8D423A0F57A6090F8A00FD4
:10426000401EC1B20020FFF7C9F90220607001E0D2
:1042700009206070C7E1052012F0B4FB38BB0220B2
:1042800012F0B0FB18BB002012F0ACFBF8B9E078DC
:10429000002810DDBB48D0F8FC23A0F57A6090F828
:1042A000A81F0220FFF718F90FE010E1AAE1C2E011
:1042B0001CE137E1E0E0B348D0F81426A0F57A60BD
:1042C00090F8A81F0220FFF707F9032060709AE119
:1042D000022012F087FB08B90420607093E10DF012
:1042E000B7FAA949D1F85811401A0A21B0FBF1F1E7
:1042F000A448D0F83006814225D9A248D0F8141637
:10430000D0F84C06091A9F48D0F8F00500F5167051
:1043100081420CD99B48D0F8F0054042A0F5487284
:10432000984890F834160220FFF768F909E095489C
:10433000D0F84C26A0F57A6090F8A81F0220FFF76D
:10434000CBF8052060705EE1022012F04BFB38BB19
:104350008C48D0F86C21A0F57A6090F8B41F052045
:10436000FFF7BAF88748D0F81816D0F84C06091AA3
:104370008448D0F8F00500F57A70814211D981485F
:10438000D0F81836D0F8F005181AA0F57A727D48E2
:1043900090F834160220FFF79FF80CE065E00DE07E
:1043A0000BE07848D0F84C26A0F57A6090F8A81F6A
:1043B0000220FFF791F80620607024E1052012F03A
:1043C00011FB00BB022012F00DFBE0B96D49D1F8E2
:1043D0000C06082112F03CFBB0B1E078002808DDA3
:1043E0006848D0F8042490F80C140220FFF774F801
:1043F00007E06448D0F8542690F834160220FFF7FE
:104400006BF80C20607015E0E078002808DD5D484E
:10441000D0F8142490F80C140220FFF75DF807E0A0
:104420005848D0F8182690F834160220FFF754F8B0
:1044300007206070E7E0022012F0D4FAA0B9E0781B
:1044400040B95048D0F8182690F858160220FFF7C7
:1044500043F807E04B48D0F8142490F8F0130220FA
:10446000FFF73AF807206070CDE0022012F0BAFAA8
:1044700008B90D206070C6E00DF0EAF94249D1F8A4
:104480005811401A0A21B0FBF1F13E48D0F8280635
:1044900081421BD93B49D1F80C06082112F0D8FA09
:1044A00090B1E07840B93748D0F8542690F86016BB
:1044B0000220FFF711F807E03248D0F8042490F802
:1044C000F4130220FFF708F8082060709BE0022038
:1044D00012F088FA48B92B48D0F84C2690F83416D8
:1044E0000220FEF7F9FF092060708CE0022012F034
:1044F00079FAB0B9E078401CE0700A206070E17889
:104500002048D0F8200681420BD21E49D1F80C0673
:104510000A2112F09DFA10B10120607001E006201E
:10452000607070E0052012F05DFAB8B9022012F058
:1045300059FA98B91349D1F80C06022112F088FAF9
:10454000012809D10F48D0F84C26A0F57A6090F8E0
:10455000A81F0220FEF7C0FF0B20607053E005206B
:1045600012F040FAF0BB022012F03CFAD0BB0DF082
:104570006FF90549D1F85811401A0A21B0FBF1F141
:10458000004805E0B82B0020145D0020945F002057
:10459000D0F85C06814206D82149D1F80C060221E8
:1045A00012F056FAF0B91F4890F8A001D0B91C4992
:1045B000D1F80C06022112F04BFA012806D1194954
:1045C00081F8600181F8800181F870011448D0F809
:1045D000D020A0F57A6090F8B41F0520FEF77CFF8C
:1045E000FF2000E000E060700DE0052012F0FAF915
:1045F00038B9022012F0F6F918B90020E0706070A6
:10460000207000E000BF00BF6078217B884206D0A8
:10461000607820730DF01CF90249C1F8580110BDF3
:10462000B82B0020145D002010B50446674890F8B0
:104630002001012807D1654890F8210118B901210E
:10464000624880F821116078042826D006DC012811
:1046500009D002280CD003287ED113E0052833D0DE
:10466000FF28F9D19FE0607B08B9022060709FE0CD
:10467000564890F8500120B95548806908B9032080
:10468000607095E0514890F8D00128B901204F4959
:1046900081F85001042060708AE04C4890F8C00115
:1046A00088B94A4890F8300168B9484890F85001F4
:1046B00048B90120454981F8C0010021434880F8EC
:1046C000C2110520607073E0404890F8C2010128D3
:1046D00007D14048D0F8BC0B18B93E48D0F8F80BC9
:1046E00020B13A4890F8C00100285BD13A48D0F890
:1046F0000C12D0F8280201443748C0F80C12344894
:10470000416D3548D0F8280208443149486532489F
:10471000D0F8A812D0F8280201442F48C0F8A812F7
:104720000120A0702C4AD2F81012D2F80C020AF024
:104730003FF801462848C0F81412244890F8A00118
:1047400018BB022012F04EF9F8B9002012F04AF915
:10475000D8B92149C86F00E029E0142112F078F996
:10476000A0B91D48D0F8D820A0F57A6090F8A81F0D
:104770000220FEF7B1FE1848D0F8DC20A0F57A60E0
:1047800090F8A01F0020FEF7A7FE09E01248D0F81D
:10479000B420A0F57A6090F8A81F0220FEF79CFED6
:1047A000FF20607004E000206070207000E000BF17
:1047B00000BF6078217B884206D0607820730DF0BE
:1047C00047F80249C1F8280110BD0000145D00201F
:1047D000945F0020780C0020B82B002070B50446B0
:1047E0000D461646142C02DB4FF0FF3070BD0DF065
:1047F0002FF81E4951F82410884204D20DF028F8F1
:104800001A4941F824001A4850F82400A0B90DF0C4
:104810001FF8164951F82410401A05EB8501B0EB3A
:10482000410F1DD90DF014F8104941F82400012062
:104830000F4941F8240013E00DF00AF80B4951F834
:104840002410401A06EB8601B0EB410F08D90CF09A
:10485000FFFF064941F824000020054941F82400E3
:10486000034810F8240040B2C0E7000008600020B0
:104870005860002070B50446607830B9207801286F
:1048800003D160700020A070E0700E21002012F0B3
:1048900099F808B9012000E0002005462D48294676
:1048A000D0F8C8230B201DF077FD20B100220F2186
:1048B000012012F0ACF80F21012012F083F808B9A2
:1048C000012000E00020054622482946D0F8CC23EC
:1048D0000C201DF061FD20B101220F21104612F0C5
:1048E00096F86078012802D0022825D10CE0002239
:1048F0000E21104612F08BF81648D0F854071649CE
:1049000048620220607017E00CF0A2FF1349D1F852
:104910009811401A0A21B0FBF1F10E48D0F8CC03EF
:10492000814208D901220E21002012F070F80020E7
:1049300060702070A07000BF00BF6078217B88424B
:1049400006D0607820730CF083FF0449C1F8980109
:1049500070BD0000B82B002028650020145D0020E9
:104960002DE9F04F9DB004460426002704EB840196
:10497000CD4800680C3000EB810090F8018004EB1A
:104980008401C94800680C3000EB810090F8029067
:1049900004EB8401C44800680C3000EB810090F8FF
:1049A00003A004EB8401C04800680C3000EB8100D8
:1049B00090F804B004EB8401BB4800680C3000EBB5
:1049C000810040791C9004EB8401B74800680C30EA
:1049D00000EB81008568B54A92E80B00D268CDE90A
:1049E0001A32CDE9180108EB4801C81DC11700EBC8
:1049F0005171C1F3C7018DF860108DF86340AB4B66
:104A000010330FCBCDE91623CDE9140109F10700CE
:104A1000C11700EB5171C9108DF850108DF853403B
:104A2000A24B20330FCBCDE91223CDE910018DF835
:104A300043409E4B30330FCBCDE90E23CDE90C0123
:104A40000AF10700C11700EB5171C9108DF8301041
:104A50008DF83340954B40330FCBCDE90A23CDE998
:104A6000080108F10700C11700EB5171C9108DF85A
:104A700020108DF823408D4B50330FCBCDE906230A
:104A8000CDE904018DF81340884B6033D3E901026E
:104A90001968DB68CDE90223CDE900108DF80340E9
:104AA00040350A2C7DDA00BF35E03B462A463146C8
:104AB0002046FFF71FF87C4800688078C1197A48C3
:104AC0000068D43000EB41100560774800688078BA
:104AD000C11975480068D43000EB411047770021B8
:104AE000714800688078C2196F480068D43000EBC4
:104AF000421001776C4800688078C1196A480068E4
:104B0000D43000EB4110846006F1110086B205F547
:104B10008875781CC7B24745C7DBB8F1000F1FD0B6
:104B2000102218A92846FBF76DFE002711E05E4809
:104B3000006881785C480068D43000EB4110456023
:104B4000594800688078401C574909688870781C6B
:104B5000C7B24745EBDB284610358680701C86B20D
:104B6000B9F1000F10D0102214A92846FBF74AFE15
:104B70004D48006800F2D45000EB04100560284650
:104B800010358680701C86B2B8F1000F12D010224A
:104B900010A92846FBF736FE4348006800F2D450BF
:104BA00000E07DE000EB041045602846103586806B
:104BB000701C86B2BAF1000F12D010220CA9284640
:104BC000FBF720FE3848006800F2D45000EB0410D8
:104BD000856001206870284610358680701C86B27A
:104BE000B8F1000F12D0102208A92846FBF70AFEE0
:104BF0002D48006800F2D45000EB0410C56001207D
:104C00006870284610358680701C86B2BBF1000F94
:104C100020D000271CE0102204A92846FBF7F2FD53
:104C200004EB8401204800680C3000EB8100C06870
:104C300038B904EB84011C4800680C3000EB81009B
:104C4000C560284610358680701C86B2781CC7B2B5
:104C50005F45E0DB1C9818B300271EE01022694670
:104C60002846FBF7CFFD04EB84010F4800680C30A9
:104C700000EB8100006938B904EB84010A48006840
:104C80000C3000EB8100056101206870284610356A
:104C90008680701C86B2781CC7B21C988742DDDB08
:104CA0001DB0BDE8F08F0000780000202C3706080A
:104CB0007047000010B51021002007F007F908B96F
:104CC000012000E00020044632232246002108464D
:104CD0000DF092FB58B34648D0F85C03022802D28C
:104CE0000020444988614248D0F8E80301281AD1DD
:104CF0004048006E012807D102203E490866012184
:104D00003B48C0F8D01C0EE000213948C0F8BC1B5D
:104D10000221C0F8B81B0120374981F86000012149
:104D20003348C0F8C01B01213148C0F8C01B112115
:104D3000002007F0CBF808B9012000E0002004466D
:104D400032232246002101200DF056FBF8B12848FD
:104D5000D0F85C03022802D200202649886124484A
:104D6000D0F8E80301280ED101212148C0F8BC1B6E
:104D70000221C0F8B81B01201F4981F86000012101
:104D80001B48C0F8C01B01211948C0F8C01B1221E4
:104D9000002007F09BF808B9012000E0002004463D
:104DA00032232246002102200DF026FB40B110489C
:104DB000D0F8E803022803D102210D48C0F8F81BFF
:104DC0000F21002007F082F8012800D100E0002028
:104DD0000446322221460A201DF0DEFA38B10621AF
:104DE000064809F075FE04210148C0F8B81B10BD43
:104DF000780C0020945F0020145D00203C180020F7
:104E00002DE9FC4704460D4616461F46DDF828905E
:104E10004FF0000814B10DB106B117B90120BDE87B
:104E2000FC87601EC4B2681EC5B2701EC6B2781E72
:104E300087B201206D4908800880022100230A46BC
:104E4000CDE900106A4805F017FF01200221002378
:104E50000A46CDE900100146654805F00DFF09221C
:104E60000121634805F0E8FE09220021604805F0B1
:104E7000E3FE01205F49088000205F490860084682
:104E8000006840F00100086008E008F101001FFA26
:104E900080F8B8F1640F01DD0220C0E75648001D1C
:104EA000006800F001000028EFD053480068524924
:104EB00008600846006840F0400008600846006846
:104EC00008600846006840F0100008600846006866
:104ED0000860084600680860002047491C310860E7
:104EE0000846006840EA897008600846006840EAA1
:104EF000046008600846006840EA055008600846FB
:104F0000006840EA064008600846006838430860C8
:104F10003948006820F001003749086009E008F1CD
:104F200001001FFA80F84FF6F070804501DD032084
:104F300075E73148001D006800F001000028EED13F
:104F40002E48006840F001002C4908602B481C30B6
:104F5000006820F0010029491C31086027480C3006
:104F6000006840F0010025490C3108602348001D0D
:104F700000682249091D08602048143000681F4954
:104F80001431086000201D494031086000211B4891
:104F90004430016019481C30006840F00100174996
:104FA0001C31086015480068002014490860124848
:104FB0001430006840F001000F49143108600223EA
:104FC00013220021012007F0F5FD0B481430006882
:104FD00040F0020008491431086002231422002125
:104FE000012007F0E7FD002019E700000C0647420A
:104FF000000C024064084742006400400066004024
:10500000014621B90748006800F0030070470129F4
:1050100005D10448001D006800F00300F6E70020F9
:10502000F4E700000C64004000B500F007F8012030
:105030000149487400BD0000A86000200FB50020A1
:10504000FFF7DEFF10B9002004B000BD0648411E86
:1050500002AB03AACDE90010411F002000F006F8C2
:1050600001481938007EEFE7C1600020F0B5DDE9A6
:105070000554324E06EB0016366806F0040616702C
:10508000167836B92D4E06EB00163668760D0E6092
:1050900005E02A4E06EB00163668F6080E60274E2D
:1050A00006EB0016366806F002061E70234E06EB6D
:1050B0000016766806F00F062E70204E06EB0016DE
:1050C000B66826701D4E06EB0016B668360A667086
:1050D0001A4E06EB0016B668360CA670174E06EB95
:1050E0000016B668360EE670144E06EB0016F6682B
:1050F0002671124E06EB0016F668360A66710F4EE0
:1051000006EB0016F668360CA6710C4E06EB001680
:10511000F668360EE67130B9094E366846F020065C
:10512000074F3E6009E0012807D1054E361D36685D
:1051300046F02006024F3F1D3E60F0BDB0650040C6
:105140000C6400401248006800F0010028B11048CB
:10515000006840F001000E4908600D48006800F446
:10516000807028B10A48006840F4807008490860DF
:105170000748006800F4803028B10548006840F412
:105180008030034908600020024908607047000031
:1051900008640040A8600020F0B505460E46059C56
:1051A0003748006800F0806008B1002101E0FF206E
:1051B000F0BD0027334800EB011007601EB9C5F3AE
:1051C0000A056D0502E025F06045ED002D4800EB75
:1051D0000110006828432B4F07EB0117386029485E
:1051E00000EB0110006840EA8607264800EB01103A
:1051F0000760244800EB0110006840EA420721489C
:1052000000EB0110076003F00F031E4800EB0110D4
:10521000406820F00F071B4800EB01104760194859
:1052200000EB011040681843164F07EB0117786038
:10523000E0790006A77940EA0740677940EA07204D
:10524000277938430F4F07EB0117F860E078000625
:10525000A77840EA0740677840EA07202778384374
:10526000084F07EB0117B860064800EB0110006813
:1052700040F00107034800EB01100760084697E77C
:1052800008640040806500402DE9F04704460D4663
:105290009146C4F30466C4F30A2704F0FF0868B219
:1052A000164908700846007830B115480068007843
:1052B00091F9001088421ED11248007886421AD116
:1052C00011480088874216D110480078804512D1D5
:1052D0000B480068C07948B9084890F900200C498B
:1052E000074800680830FBF78DFA02E00020BDE8AF
:1052F000F0870020FBE74FF0FF30F8E76C0000205C
:1053000058000020500000205200002055000020CE
:105310005C00002010B523480068C07918B900204F
:10532000214908700EE01F480068007840B21E490D
:105330000870084690F900201A48016808311B4897
:10534000FBF760FA17480068C078194908701548DB
:105350000068808817490880174800781649087047
:1053600010480068C0791549087011480078C006D7
:10537000C008097801F0010140EAC1500D490988CF
:10538000C1F30A0140EA01200B49097808430C499E
:10539000086005480178054A0948006800F0F6FDF4
:1053A00010BD0000580000206D00002064000020A7
:1053B0005000002052000020550000205400002022
:1053C0007400002010B55048006828B14E4840686D
:1053D00010B901204C4948604B484068012802D070
:1053E00002287DD10EE000F0A9FD50B9FFF792FF31
:1053F0000CF028FA4549086043484068401C42497F
:1054000048607FE04249434800F07CFD4249087013
:10541000084690F90000002840DB084601783C4A25
:105420003C480068FFF730FF78B93C480068807856
:1054300030B13A4800688078401E38490968887061
:10544000002031490860486028E0344800688078CE
:10545000401C324909688870304800688079032808
:1054600004D02E4800688079042802D10120264902
:1054700048602A480068807805280FDB0020224910
:105480000860486026480068806824490968CA782E
:105490000121914008432249096888600CF0D2F943
:1054A0001A490968401A0F282AD91C4800688078D0
:1054B000401C1A49096888701848006880790328D8
:1054C00004D0164800688079042802D100200E49D3
:1054D0004860124800688078052811DB002000E051
:1054E0000FE00949086048600D48006880680B4972
:1054F0000968CA7801219140084309490968886010
:1055000000E000BF00BF10BD800000209000002020
:105510005C000020700000206C000020580000207B
:10552000780000202DE9F04105460C460CF08AF980
:105530000746FBF7DFF8FAF7A3FE40F2E93190FBEC
:10554000F1F201FB120626606560BDE8F081000003
:1055500070B586B00446002508E00021FE4800EB47
:10556000C410643040F82510681CC5B2072DF4DB68
:10557000204608F02BFDF84901EBC4118865F64878
:1055800000EBC410007800287ED1F34800EBC41073
:10559000C069002877D0F04800EBC410006A0028EA
:1055A00071D0ED4800EBC410C068EB4901EBC411A9
:1055B0008968401A00EE100AB8EE400ADFEDE70AEB
:1055C00060EE200AE44800EBC41090ED070AB8EE44
:1055D000400A80EE801ABCEEC10ADF4800EBC4101E
:1055E00080ED050ADC4800EBC4104369DA4800EBA3
:1055F000C410C268D84800EBC410816802A803F048
:10560000EBF8DDE90201CDE90401D34800EBC41059
:1056100005998166D04800EBC410C168CE4800EB04
:10562000C4100069081A00EE100AB8EE400ADFED57
:10563000CB0A60EE200AC84800EBC41090ED080ABF
:10564000B8EE400A80EE801ABCEEC10AC24800EBF8
:10565000C41080ED060AC04800EBC4108369BE4840
:1056600000EBC4100269BC4800EBC410C16802A87A
:1056700003F00EFBDDE90201CDE90401B64800EBC1
:10568000C4100599816700E0A2E0B34800EBC410A4
:10569000816EB14800EBC410806F0144AE4800EB4E
:1056A000C410806D814212D8AB4800EBC410816DEC
:1056B000A94800EBC410806E091AA74800EBC4107B
:1056C000806F091AA44800EBC410016764E2A24885
:1056D00000EBC41090ED160AB8EE400ADFEDA00A08
:1056E00060EE200A9C4800EBC41090ED070AB8EE6B
:1056F000400A60EE800A984800EBC410C1699648E1
:1057000000EBC410006A084400EE100AB8EE400A2C
:1057100080EE801ABCEEC10A10EE106A8E4800EBD3
:10572000C41042698C4800EBC4103346816802A85B
:1057300008F0A6FDDDE90201CDE90401864800EB91
:10574000C4100499C160844800EBC41005998166B7
:10575000814800EBC41083697F4800EBC4100269E4
:105760007D4800EBC410C16802A803F091FADDE99E
:105770000201CDE90401784800EBC4100599816766
:10578000754800EBC410816E734800EBC410806F45
:105790000144714800EBC410806D814212D86E48FC
:1057A00000EBC410816D6C4800EBC410806E091AC8
:1057B000694800EBC410806F091A674800EBC410F9
:1057C00001679BE30021644800EBC410016795E387
:1057D000614800EBC41000780128F2D15E4800EB6C
:1057E000C410C0690028ECD05B4800EBC410006A0C
:1057F0000028E6D0584800EBC41090ED070AB8EE38
:10580000400ADFED580A20EE200ADFED540A80EE50
:10581000201A514800EBC41080ED091A4E4800EBE5
:10582000C410C0684C4901EBC4118968401A00EEED
:10583000100AB8EE400ADFED490A60EE200A464839
:1058400000EBC41090ED070AB8EE400A9FED461A2F
:1058500020EE010A80EE801ABDEEC10A3E4800EB40
:10586000C41080ED050A3C4800EBC41090ED050A19
:10587000B8EE400A384800EBC410D0ED090A9FED9D
:10588000371A20EE811AC0EE010AB6EE000A30EE99
:10589000800ABDEEC00A304800EBC41080ED0B0A50
:1058A0002D4800EBC41090ED080AB8EE400ADFED79
:1058B0002D0A20EE200ADFED290A80EE201A264864
:1058C00000EBC41080ED0A1A234800EBC410C16835
:1058D000214800EBC4100069081A00EE100AB8EE67
:1058E000400ADFED1E0A60EE200A1B4800EBC410E0
:1058F00090ED080AB8EE400A9FED1B1A20EE010A4F
:1059000080EE801ABDEEC10A134800EBC41080ED92
:10591000060A114800EBC41090ED060AB8EE400AE2
:105920000D4800EBC410D0ED0A0A9FED0C1A20EED2
:10593000811AC0EE010AB6EE000A30EE800ABDEE12
:10594000C00A054800EBC41080ED0C0A024800EBC9
:10595000C410C36A004809E0A877002000007A4418
:105960006666663FCDCCCC3E9A99193F00EBC410D9
:105970004269FE4800EBC410816802A802F0A8FE4C
:10598000DDE90201CDE90401F84800EBC4100499F7
:10599000C163F64800EBC41005994166F34800EB7B
:1059A000C410C068F14901EBC41189680144EF4893
:1059B00000EBC410C06B091AEC4800EBC410016482
:1059C000EA4800EBC4104369E84800EBC410026CDD
:1059D000E64800EBC410C16B02A802F075FFDDE9D8
:1059E0000201CDE90401E14800EBC410049901640F
:1059F000DE4800EBC41005998166DC4800EBC4105A
:105A0000C06A0090D94800EBC4104369D74800EB46
:105A1000C410C268D54800EBC410016C02A802F0A3
:105A2000ABFDDDE90201CDE90401D04800EBC41073
:105A30000599C166CD4800EBC410036BCB4800EB61
:105A4000C4108269C94800EBC410C16802A803F001
:105A500075F8DDE90201CDE90401C44800EBC4108A
:105A600004994164C14800EBC41005994167BF48DF
:105A700000EBC410C168BD4800EBC41000690144CC
:105A8000BA4800EBC410406C091AB84800EBC410C7
:105A90008164B64800EBC4108369B44800EBC410BD
:105AA000826CB24800EBC410416C02A803F08AF982
:105AB000DDE90201CDE90401AC4800EBC410049912
:105AC0008164AA4800EBC41005998167A74800EBE0
:105AD000C410006B0090A54800EBC4108369A34874
